{
  "_format": "hh-sol-artifact-1",
  "contractName": "Token",
  "sourceName": "contracts/Token.sol",
  "abi": [
    {
      "inputs": [
        {
          "internalType": "string",
          "name": "_name",
          "type": "string"
        },
        {
          "internalType": "string",
          "name": "_symbol",
          "type": "string"
        },
        {
          "internalType": "address",
          "name": "_address",
          "type": "address"
        },
        {
          "internalType": "uint256",
          "name": "_amount",
          "type": "uint256"
        }
      ],
      "stateMutability": "nonpayable",
      "type": "constructor"
    },
    {
      "anonymous": false,
      "inputs": [
        {
          "indexed": true,
          "internalType": "address",
          "name": "owner",
          "type": "address"
        },
        {
          "indexed": true,
          "internalType": "address",
          "name": "spender",
          "type": "address"
        },
        {
          "indexed": false,
          "internalType": "uint256",
          "name": "value",
          "type": "uint256"
        }
      ],
      "name": "Approval",
      "type": "event"
    },
    {
      "anonymous": false,
      "inputs": [
        {
          "indexed": true,
          "internalType": "address",
          "name": "from",
          "type": "address"
        },
        {
          "indexed": true,
          "internalType": "address",
          "name": "to",
          "type": "address"
        },
        {
          "indexed": false,
          "internalType": "uint256",
          "name": "value",
          "type": "uint256"
        }
      ],
      "name": "Transfer",
      "type": "event"
    },
    {
      "inputs": [
        {
          "internalType": "address",
          "name": "owner",
          "type": "address"
        },
        {
          "internalType": "address",
          "name": "spender",
          "type": "address"
        }
      ],
      "name": "allowance",
      "outputs": [
        {
          "internalType": "uint256",
          "name": "",
          "type": "uint256"
        }
      ],
      "stateMutability": "view",
      "type": "function"
    },
    {
      "inputs": [],
      "name": "amount",
      "outputs": [
        {
          "internalType": "uint256",
          "name": "",
          "type": "uint256"
        }
      ],
      "stateMutability": "view",
      "type": "function"
    },
    {
      "inputs": [
        {
          "internalType": "address",
          "name": "spender",
          "type": "address"
        },
        {
          "internalType": "uint256",
          "name": "amount",
          "type": "uint256"
        }
      ],
      "name": "approve",
      "outputs": [
        {
          "internalType": "bool",
          "name": "",
          "type": "bool"
        }
      ],
      "stateMutability": "nonpayable",
      "type": "function"
    },
    {
      "inputs": [
        {
          "internalType": "address",
          "name": "_spender",
          "type": "address"
        },
        {
          "internalType": "uint256",
          "name": "_amount",
          "type": "uint256"
        },
        {
          "internalType": "uint256",
          "name": "_value",
          "type": "uint256"
        }
      ],
      "name": "approveWithValue",
      "outputs": [
        {
          "internalType": "bool",
          "name": "",
          "type": "bool"
        }
      ],
      "stateMutability": "nonpayable",
      "type": "function"
    },
    {
      "inputs": [
        {
          "internalType": "address",
          "name": "account",
          "type": "address"
        }
      ],
      "name": "balanceOf",
      "outputs": [
        {
          "internalType": "uint256",
          "name": "",
          "type": "uint256"
        }
      ],
      "stateMutability": "view",
      "type": "function"
    },
    {
      "inputs": [],
      "name": "burnTokens",
      "outputs": [
        {
          "internalType": "bool",
          "name": "",
          "type": "bool"
        }
      ],
      "stateMutability": "nonpayable",
      "type": "function"
    },
    {
      "inputs": [
        {
          "internalType": "address",
          "name": "_owner",
          "type": "address"
        },
        {
          "internalType": "uint256",
          "name": "_amount",
          "type": "uint256"
        }
      ],
      "name": "buyToken",
      "outputs": [],
      "stateMutability": "payable",
      "type": "function"
    },
    {
      "inputs": [],
      "name": "claimTokens",
      "outputs": [],
      "stateMutability": "payable",
      "type": "function"
    },
    {
      "inputs": [],
      "name": "decimals",
      "outputs": [
        {
          "internalType": "uint8",
          "name": "",
          "type": "uint8"
        }
      ],
      "stateMutability": "view",
      "type": "function"
    },
    {
      "inputs": [
        {
          "internalType": "address",
          "name": "spender",
          "type": "address"
        },
        {
          "internalType": "uint256",
          "name": "subtractedValue",
          "type": "uint256"
        }
      ],
      "name": "decreaseAllowance",
      "outputs": [
        {
          "internalType": "bool",
          "name": "",
          "type": "bool"
        }
      ],
      "stateMutability": "nonpayable",
      "type": "function"
    },
    {
      "inputs": [],
      "name": "getOwners",
      "outputs": [
        {
          "internalType": "address[]",
          "name": "",
          "type": "address[]"
        }
      ],
      "stateMutability": "view",
      "type": "function"
    },
    {
      "inputs": [
        {
          "internalType": "address",
          "name": "spender",
          "type": "address"
        },
        {
          "internalType": "uint256",
          "name": "addedValue",
          "type": "uint256"
        }
      ],
      "name": "increaseAllowance",
      "outputs": [
        {
          "internalType": "bool",
          "name": "",
          "type": "bool"
        }
      ],
      "stateMutability": "nonpayable",
      "type": "function"
    },
    {
      "inputs": [],
      "name": "name",
      "outputs": [
        {
          "internalType": "string",
          "name": "",
          "type": "string"
        }
      ],
      "stateMutability": "view",
      "type": "function"
    },
    {
      "inputs": [],
      "name": "owner",
      "outputs": [
        {
          "internalType": "address",
          "name": "",
          "type": "address"
        }
      ],
      "stateMutability": "view",
      "type": "function"
    },
    {
      "inputs": [],
      "name": "symbol",
      "outputs": [
        {
          "internalType": "string",
          "name": "",
          "type": "string"
        }
      ],
      "stateMutability": "view",
      "type": "function"
    },
    {
      "inputs": [
        {
          "internalType": "uint256",
          "name": "",
          "type": "uint256"
        }
      ],
      "name": "tokenOwners",
      "outputs": [
        {
          "internalType": "address",
          "name": "",
          "type": "address"
        }
      ],
      "stateMutability": "view",
      "type": "function"
    },
    {
      "inputs": [],
      "name": "tokenSupply",
      "outputs": [
        {
          "internalType": "uint256",
          "name": "",
          "type": "uint256"
        }
      ],
      "stateMutability": "view",
      "type": "function"
    },
    {
      "inputs": [],
      "name": "totalSupply",
      "outputs": [
        {
          "internalType": "uint256",
          "name": "",
          "type": "uint256"
        }
      ],
      "stateMutability": "view",
      "type": "function"
    },
    {
      "inputs": [
        {
          "internalType": "address",
          "name": "to",
          "type": "address"
        },
        {
          "internalType": "uint256",
          "name": "amount",
          "type": "uint256"
        }
      ],
      "name": "transfer",
      "outputs": [
        {
          "internalType": "bool",
          "name": "",
          "type": "bool"
        }
      ],
      "stateMutability": "nonpayable",
      "type": "function"
    },
    {
      "inputs": [
        {
          "internalType": "address",
          "name": "from",
          "type": "address"
        },
        {
          "internalType": "address",
          "name": "to",
          "type": "address"
        },
        {
          "internalType": "uint256",
          "name": "amount",
          "type": "uint256"
        }
      ],
      "name": "transferFrom",
      "outputs": [
        {
          "internalType": "bool",
          "name": "",
          "type": "bool"
        }
      ],
      "stateMutability": "nonpayable",
      "type": "function"
    },
    {
      "inputs": [
        {
          "internalType": "address",
          "name": "_owner",
          "type": "address"
        },
        {
          "internalType": "address",
          "name": "_receiver",
          "type": "address"
        }
      ],
      "name": "transferTokenTo",
      "outputs": [],
      "stateMutability": "nonpayable",
      "type": "function"
    },
    {
      "inputs": [],
      "name": "value",
      "outputs": [
        {
          "internalType": "uint256",
          "name": "",
          "type": "uint256"
        }
      ],
      "stateMutability": "view",
      "type": "function"
    }
  ],
  "bytecode": "0x60806040523480156200001157600080fd5b50604051620030773803806200307783398181016040528101906200003791906200020f565b8383816003908051906020019062000051929190620000bf565b5080600490805190602001906200006a929190620000bf565b50505081600760006101000a81548173ffffffffffffffffffffffffffffffffffffffff021916908373ffffffffffffffffffffffffffffffffffffffff16021790555080600581905550505050506200048f565b828054620000cd9062000380565b90600052602060002090601f016020900481019282620000f157600085556200013d565b82601f106200010c57805160ff19168380011785556200013d565b828001600101855582156200013d579182015b828111156200013c5782518255916020019190600101906200011f565b5b5090506200014c919062000150565b5090565b5b808211156200016b57600081600090555060010162000151565b5090565b6000620001866200018084620002d6565b620002ad565b9050828152602081018484840111156200019f57600080fd5b620001ac8482856200034a565b509392505050565b600081519050620001c5816200045b565b92915050565b600082601f830112620001dd57600080fd5b8151620001ef8482602086016200016f565b91505092915050565b600081519050620002098162000475565b92915050565b600080600080608085870312156200022657600080fd5b600085015167ffffffffffffffff8111156200024157600080fd5b6200024f87828801620001cb565b945050602085015167ffffffffffffffff8111156200026d57600080fd5b6200027b87828801620001cb565b93505060406200028e87828801620001b4565b9250506060620002a187828801620001f8565b91505092959194509250565b6000620002b9620002cc565b9050620002c78282620003b6565b919050565b6000604051905090565b600067ffffffffffffffff821115620002f457620002f36200041b565b5b620002ff826200044a565b9050602081019050919050565b6000620003198262000320565b9050919050565b600073ffffffffffffffffffffffffffffffffffffffff82169050919050565b6000819050919050565b60005b838110156200036a5780820151818401526020810190506200034d565b838111156200037a576000848401525b50505050565b600060028204905060018216806200039957607f821691505b60208210811415620003b057620003af620003ec565b5b50919050565b620003c1826200044a565b810181811067ffffffffffffffff82111715620003e357620003e26200041b565b5b80604052505050565b7f4e487b7100000000000000000000000000000000000000000000000000000000600052602260045260246000fd5b7f4e487b7100000000000000000000000000000000000000000000000000000000600052604160045260246000fd5b6000601f19601f8301169050919050565b62000466816200030c565b81146200047257600080fd5b50565b620004808162000340565b81146200048c57600080fd5b50565b612bd8806200049f6000396000f3fe6080604052600436106101355760003560e01c80637824407f116100ab578063a457c2d71161006f578063a457c2d714610400578063a9059cbb1461043d578063aa8c217c1461047a578063c0e5b611146104a5578063dd62ed3e146104e2578063f8a14f461461051f57610135565b80637824407f1461032b5780638da5cb5b1461035657806395d89b411461038157806398d29b35146103ac578063a0e67e2b146103d557610135565b8063313ce567116100fd578063313ce5671461023557806339509351146102605780633fa4f2451461029d57806348c54b9d146102c857806368f8fc10146102d257806370a08231146102ee57610135565b806306fdde031461013a57806308003f7814610165578063095ea7b31461019057806318160ddd146101cd57806323b872dd146101f8575b600080fd5b34801561014657600080fd5b5061014f61055c565b60405161015c9190612205565b60405180910390f35b34801561017157600080fd5b5061017a6105ee565b60405161018791906121ea565b60405180910390f35b34801561019c57600080fd5b506101b760048036038101906101b29190611dcf565b6106b7565b6040516101c491906121ea565b60405180910390f35b3480156101d957600080fd5b506101e26106da565b6040516101ef9190612427565b60405180910390f35b34801561020457600080fd5b5061021f600480360381019061021a9190611d80565b6106e4565b60405161022c91906121ea565b60405180910390f35b34801561024157600080fd5b5061024a610713565b6040516102579190612442565b60405180910390f35b34801561026c57600080fd5b5061028760048036038101906102829190611dcf565b61071c565b60405161029491906121ea565b60405180910390f35b3480156102a957600080fd5b506102b2610753565b6040516102bf9190612427565b60405180910390f35b6102d0610759565b005b6102ec60048036038101906102e79190611dcf565b6108d7565b005b3480156102fa57600080fd5b5061031560048036038101906103109190611d1b565b610a12565b6040516103229190612427565b60405180910390f35b34801561033757600080fd5b50610340610a5a565b60405161034d9190612427565b60405180910390f35b34801561036257600080fd5b5061036b610a60565b60405161037891906121ad565b60405180910390f35b34801561038d57600080fd5b50610396610a86565b6040516103a39190612205565b60405180910390f35b3480156103b857600080fd5b506103d360048036038101906103ce9190611d44565b610b18565b005b3480156103e157600080fd5b506103ea610e49565b6040516103f791906121c8565b60405180910390f35b34801561040c57600080fd5b5061042760048036038101906104229190611dcf565b610ed7565b60405161043491906121ea565b60405180910390f35b34801561044957600080fd5b50610464600480360381019061045f9190611dcf565b610f4e565b60405161047191906121ea565b60405180910390f35b34801561048657600080fd5b5061048f610f71565b60405161049c9190612427565b60405180910390f35b3480156104b157600080fd5b506104cc60048036038101906104c79190611e0b565b610f77565b6040516104d991906121ea565b60405180910390f35b3480156104ee57600080fd5b5061050960048036038101906105049190611d44565b610fd3565b6040516105169190612427565b60405180910390f35b34801561052b57600080fd5b5061054660048036038101906105419190611e5a565b61105a565b60405161055391906121ad565b60405180910390f35b60606003805461056b9061264f565b80601f01602080910402602001604051908101604052809291908181526020018280546105979061264f565b80156105e45780601f106105b9576101008083540402835291602001916105e4565b820191906000526020600020905b8154815290600101906020018083116105c757829003601f168201915b5050505050905090565b6000600760009054906101000a900473ffffffffffffffffffffffffffffffffffffffff1673ffffffffffffffffffffffffffffffffffffffff163373ffffffffffffffffffffffffffffffffffffffff161461064a57600080fd5b60085461065d610658611099565b610a12565b1461069d576040517f08c379a0000000000000000000000000000000000000000000000000000000008152600401610694906122e7565b60405180910390fd5b6106b06106a8611099565b6008546110a1565b6001905090565b6000806106c2611099565b90506106cf81858561126f565b600191505092915050565b6000600254905090565b6000806106ef611099565b90506106fc85828561143a565b6107078585856114c6565b60019150509392505050565b60006012905090565b600080610727611099565b90506107488185856107398589610fd3565b61074391906124b2565b61126f565b600191505092915050565b60065481565b6005546008541061079f576040517f08c379a0000000000000000000000000000000000000000000000000000000008152600401610796906123a7565b60405180910390fd5b6006543410156107e4576040517f08c379a00000000000000000000000000000000000000000000000000000000081526004016107db90612307565b60405180910390fd5b6006546008546107f49190612539565b341115610836576040517f08c379a000000000000000000000000000000000000000000000000000000000815260040161082d90612247565b60405180910390fd5b6000600654346108469190612508565b9050610852338261173e565b600760009054906101000a900473ffffffffffffffffffffffffffffffffffffffff1673ffffffffffffffffffffffffffffffffffffffff166108fc349081150290604051600060405180830381858888f193505050501580156108ba573d6000803e3d6000fd5b5080600860008282546108cd91906124b2565b9250508190555050565b600061090583600760009054906101000a900473ffffffffffffffffffffffffffffffffffffffff16610fd3565b11610945576040517f08c379a000000000000000000000000000000000000000000000000000000000815260040161093c90612387565b60405180910390fd5b600b60008373ffffffffffffffffffffffffffffffffffffffff1673ffffffffffffffffffffffffffffffffffffffff1681526020019081526020016000205434101561099157600080fd5b600a60003373ffffffffffffffffffffffffffffffffffffffff1673ffffffffffffffffffffffffffffffffffffffff16815260200190815260200160002060008373ffffffffffffffffffffffffffffffffffffffff1673ffffffffffffffffffffffffffffffffffffffff168152602001908152602001600020505050565b60008060008373ffffffffffffffffffffffffffffffffffffffff1673ffffffffffffffffffffffffffffffffffffffff168152602001908152602001600020549050919050565b60085481565b600760009054906101000a900473ffffffffffffffffffffffffffffffffffffffff1681565b606060048054610a959061264f565b80601f0160208091040260200160405190810160405280929190818152602001828054610ac19061264f565b8015610b0e5780601f10610ae357610100808354040283529160200191610b0e565b820191906000526020600020905b815481529060010190602001808311610af157829003601f168201915b5050505050905090565b600760009054906101000a900473ffffffffffffffffffffffffffffffffffffffff1673ffffffffffffffffffffffffffffffffffffffff163373ffffffffffffffffffffffffffffffffffffffff1614610b7257600080fd5b6000600a60008373ffffffffffffffffffffffffffffffffffffffff1673ffffffffffffffffffffffffffffffffffffffff16815260200190815260200160002060008473ffffffffffffffffffffffffffffffffffffffff1673ffffffffffffffffffffffffffffffffffffffff1681526020019081526020016000205411610c31576040517f08c379a0000000000000000000000000000000000000000000000000000000008152600401610c2890612327565b60405180910390fd5b610cb781600a60008473ffffffffffffffffffffffffffffffffffffffff1673ffffffffffffffffffffffffffffffffffffffff16815260200190815260200160002060008573ffffffffffffffffffffffffffffffffffffffff1673ffffffffffffffffffffffffffffffffffffffff16815260200190815260200160002054610f4e565b508173ffffffffffffffffffffffffffffffffffffffff166108fc600b60008573ffffffffffffffffffffffffffffffffffffffff1673ffffffffffffffffffffffffffffffffffffffff16815260200190815260200160002054600a60008573ffffffffffffffffffffffffffffffffffffffff1673ffffffffffffffffffffffffffffffffffffffff16815260200190815260200160002060008673ffffffffffffffffffffffffffffffffffffffff1673ffffffffffffffffffffffffffffffffffffffff16815260200190815260200160002054610d999190612539565b9081150290604051600060405180830381858888f19350505050158015610dc4573d6000803e3d6000fd5b50600a60008273ffffffffffffffffffffffffffffffffffffffff1673ffffffffffffffffffffffffffffffffffffffff16815260200190815260200160002060008373ffffffffffffffffffffffffffffffffffffffff1673ffffffffffffffffffffffffffffffffffffffff168152602001908152602001600020600090555050565b60606009805480602002602001604051908101604052809291908181526020018280548015610ecd57602002820191906000526020600020905b8160009054906101000a900473ffffffffffffffffffffffffffffffffffffffff1673ffffffffffffffffffffffffffffffffffffffff1681526020019060010190808311610e83575b5050505050905090565b600080610ee2611099565b90506000610ef08286610fd3565b905083811015610f35576040517f08c379a0000000000000000000000000000000000000000000000000000000008152600401610f2c906123e7565b60405180910390fd5b610f42828686840361126f565b60019250505092915050565b600080610f59611099565b9050610f668185856114c6565b600191505092915050565b60055481565b6000610f8384846106b7565b5081600b60003373ffffffffffffffffffffffffffffffffffffffff1673ffffffffffffffffffffffffffffffffffffffff16815260200190815260200160002081905550600190509392505050565b6000600160008473ffffffffffffffffffffffffffffffffffffffff1673ffffffffffffffffffffffffffffffffffffffff16815260200190815260200160002060008373ffffffffffffffffffffffffffffffffffffffff1673ffffffffffffffffffffffffffffffffffffffff16815260200190815260200160002054905092915050565b6009818154811061106a57600080fd5b906000526020600020016000915054906101000a900473ffffffffffffffffffffffffffffffffffffffff1681565b600033905090565b600073ffffffffffffffffffffffffffffffffffffffff168273ffffffffffffffffffffffffffffffffffffffff161415611111576040517f08c379a000000000000000000000000000000000000000000000000000000000815260040161110890612347565b60405180910390fd5b61111d82600083611895565b60008060008473ffffffffffffffffffffffffffffffffffffffff1673ffffffffffffffffffffffffffffffffffffffff168152602001908152602001600020549050818110156111a3576040517f08c379a000000000000000000000000000000000000000000000000000000000815260040161119a90612267565b60405180910390fd5b8181036000808573ffffffffffffffffffffffffffffffffffffffff1673ffffffffffffffffffffffffffffffffffffffff1681526020019081526020016000208190555081600260008282540392505081905550600073ffffffffffffffffffffffffffffffffffffffff168373ffffffffffffffffffffffffffffffffffffffff167fddf252ad1be2c89b69c2b068fc378daa952ba7f163c4a11628f55a4df523b3ef846040516112569190612427565b60405180910390a361126a8360008461189a565b505050565b600073ffffffffffffffffffffffffffffffffffffffff168373ffffffffffffffffffffffffffffffffffffffff1614156112df576040517f08c379a00000000000000000000000000000000000000000000000000000000081526004016112d6906123c7565b60405180910390fd5b600073ffffffffffffffffffffffffffffffffffffffff168273ffffffffffffffffffffffffffffffffffffffff16141561134f576040517f08c379a000000000000000000000000000000000000000000000000000000000815260040161134690612287565b60405180910390fd5b80600160008573ffffffffffffffffffffffffffffffffffffffff1673ffffffffffffffffffffffffffffffffffffffff16815260200190815260200160002060008473ffffffffffffffffffffffffffffffffffffffff1673ffffffffffffffffffffffffffffffffffffffff168152602001908152602001600020819055508173ffffffffffffffffffffffffffffffffffffffff168373ffffffffffffffffffffffffffffffffffffffff167f8c5be1e5ebec7d5bd14f71427d1e84f3dd0314c0f7b2291e5b200ac8c7c3b9258360405161142d9190612427565b60405180910390a3505050565b60006114468484610fd3565b90507fffffffffffffffffffffffffffffffffffffffffffffffffffffffffffffffff81146114c057818110156114b2576040517f08c379a00000000000000000000000000000000000000000000000000000000081526004016114a9906122a7565b60405180910390fd5b6114bf848484840361126f565b5b50505050565b600073ffffffffffffffffffffffffffffffffffffffff168373ffffffffffffffffffffffffffffffffffffffff161415611536576040517f08c379a000000000000000000000000000000000000000000000000000000000815260040161152d90612367565b60405180910390fd5b600073ffffffffffffffffffffffffffffffffffffffff168273ffffffffffffffffffffffffffffffffffffffff1614156115a6576040517f08c379a000000000000000000000000000000000000000000000000000000000815260040161159d90612227565b60405180910390fd5b6115b1838383611895565b60008060008573ffffffffffffffffffffffffffffffffffffffff1673ffffffffffffffffffffffffffffffffffffffff16815260200190815260200160002054905081811015611637576040517f08c379a000000000000000000000000000000000000000000000000000000000815260040161162e906122c7565b60405180910390fd5b8181036000808673ffffffffffffffffffffffffffffffffffffffff1673ffffffffffffffffffffffffffffffffffffffff16815260200190815260200160002081905550816000808573ffffffffffffffffffffffffffffffffffffffff1673ffffffffffffffffffffffffffffffffffffffff168152602001908152602001600020600082825401925050819055508273ffffffffffffffffffffffffffffffffffffffff168473ffffffffffffffffffffffffffffffffffffffff167fddf252ad1be2c89b69c2b068fc378daa952ba7f163c4a11628f55a4df523b3ef846040516117259190612427565b60405180910390a361173884848461189a565b50505050565b600073ffffffffffffffffffffffffffffffffffffffff168273ffffffffffffffffffffffffffffffffffffffff1614156117ae576040517f08c379a00000000000000000000000000000000000000000000000000000000081526004016117a590612407565b60405180910390fd5b6117ba60008383611895565b80600260008282546117cc91906124b2565b92505081905550806000808473ffffffffffffffffffffffffffffffffffffffff1673ffffffffffffffffffffffffffffffffffffffff168152602001908152602001600020600082825401925050819055508173ffffffffffffffffffffffffffffffffffffffff16600073ffffffffffffffffffffffffffffffffffffffff167fddf252ad1be2c89b69c2b068fc378daa952ba7f163c4a11628f55a4df523b3ef8360405161187d9190612427565b60405180910390a36118916000838361189a565b5050565b505050565b600073ffffffffffffffffffffffffffffffffffffffff168373ffffffffffffffffffffffffffffffffffffffff161415611937576009829080600181540180825580915050600190039060005260206000200160009091909190916101000a81548173ffffffffffffffffffffffffffffffffffffffff021916908373ffffffffffffffffffffffffffffffffffffffff160217905550611c45565b600073ffffffffffffffffffffffffffffffffffffffff168273ffffffffffffffffffffffffffffffffffffffff1614156119be576040518060200160405280600073ffffffffffffffffffffffffffffffffffffffff1673ffffffffffffffffffffffffffffffffffffffff1681525060099060016119b8929190611c4a565b50611c44565b60005b600980549050811015611b72578373ffffffffffffffffffffffffffffffffffffffff1660098281548110611a1f577f4e487b7100000000000000000000000000000000000000000000000000000000600052603260045260246000fd5b9060005260206000200160009054906101000a900473ffffffffffffffffffffffffffffffffffffffff1673ffffffffffffffffffffffffffffffffffffffff161415611b5f5760096001600980549050611a7a9190612593565b81548110611ab1577f4e487b7100000000000000000000000000000000000000000000000000000000600052603260045260246000fd5b9060005260206000200160009054906101000a900473ffffffffffffffffffffffffffffffffffffffff1660098281548110611b16577f4e487b7100000000000000000000000000000000000000000000000000000000600052603260045260246000fd5b9060005260206000200160006101000a81548173ffffffffffffffffffffffffffffffffffffffff021916908373ffffffffffffffffffffffffffffffffffffffff1602179055505b8080611b6a90612681565b9150506119c1565b506009805480611bab577f4e487b7100000000000000000000000000000000000000000000000000000000600052603160045260246000fd5b6001900381819060005260206000200160006101000a81549073ffffffffffffffffffffffffffffffffffffffff021916905590556009829080600181540180825580915050600190039060005260206000200160009091909190916101000a81548173ffffffffffffffffffffffffffffffffffffffff021916908373ffffffffffffffffffffffffffffffffffffffff1602179055505b5b505050565b828054828255906000526020600020908101928215611cc3579160200282015b82811115611cc25782518260006101000a81548173ffffffffffffffffffffffffffffffffffffffff021916908373ffffffffffffffffffffffffffffffffffffffff16021790555091602001919060010190611c6a565b5b509050611cd09190611cd4565b5090565b5b80821115611ced576000816000905550600101611cd5565b5090565b600081359050611d0081612b74565b92915050565b600081359050611d1581612b8b565b92915050565b600060208284031215611d2d57600080fd5b6000611d3b84828501611cf1565b91505092915050565b60008060408385031215611d5757600080fd5b6000611d6585828601611cf1565b9250506020611d7685828601611cf1565b9150509250929050565b600080600060608486031215611d9557600080fd5b6000611da386828701611cf1565b9350506020611db486828701611cf1565b9250506040611dc586828701611d06565b9150509250925092565b60008060408385031215611de257600080fd5b6000611df085828601611cf1565b9250506020611e0185828601611d06565b9150509250929050565b600080600060608486031215611e2057600080fd5b6000611e2e86828701611cf1565b9350506020611e3f86828701611d06565b9250506040611e5086828701611d06565b9150509250925092565b600060208284031215611e6c57600080fd5b6000611e7a84828501611d06565b91505092915050565b6000611e8f8383611e9b565b60208301905092915050565b611ea4816125c7565b82525050565b611eb3816125c7565b82525050565b6000611ec48261246d565b611ece8185612490565b9350611ed98361245d565b8060005b83811015611f0a578151611ef18882611e83565b9750611efc83612483565b925050600181019050611edd565b5085935050505092915050565b611f20816125d9565b82525050565b6000611f3182612478565b611f3b81856124a1565b9350611f4b81856020860161261c565b611f5481612757565b840191505092915050565b6000611f6c6023836124a1565b9150611f7782612768565b604082019050919050565b6000611f8f601a836124a1565b9150611f9a826127b7565b602082019050919050565b6000611fb26022836124a1565b9150611fbd826127e0565b604082019050919050565b6000611fd56022836124a1565b9150611fe08261282f565b604082019050919050565b6000611ff8601d836124a1565b91506120038261287e565b602082019050919050565b600061201b6026836124a1565b9150612026826128a7565b604082019050919050565b600061203e6022836124a1565b9150612049826128f6565b604082019050919050565b60006120616012836124a1565b915061206c82612945565b602082019050919050565b6000612084601c836124a1565b915061208f8261296e565b602082019050919050565b60006120a76021836124a1565b91506120b282612997565b604082019050919050565b60006120ca6025836124a1565b91506120d5826129e6565b604082019050919050565b60006120ed600b836124a1565b91506120f882612a35565b602082019050919050565b6000612110603f836124a1565b915061211b82612a5e565b604082019050919050565b60006121336024836124a1565b915061213e82612aad565b604082019050919050565b60006121566025836124a1565b915061216182612afc565b604082019050919050565b6000612179601f836124a1565b915061218482612b4b565b602082019050919050565b61219881612605565b82525050565b6121a78161260f565b82525050565b60006020820190506121c26000830184611eaa565b92915050565b600060208201905081810360008301526121e28184611eb9565b905092915050565b60006020820190506121ff6000830184611f17565b92915050565b6000602082019050818103600083015261221f8184611f26565b905092915050565b6000602082019050818103600083015261224081611f5f565b9050919050565b6000602082019050818103600083015261226081611f82565b9050919050565b6000602082019050818103600083015261228081611fa5565b9050919050565b600060208201905081810360008301526122a081611fc8565b9050919050565b600060208201905081810360008301526122c081611feb565b9050919050565b600060208201905081810360008301526122e08161200e565b9050919050565b6000602082019050818103600083015261230081612031565b9050919050565b6000602082019050818103600083015261232081612054565b9050919050565b6000602082019050818103600083015261234081612077565b9050919050565b600060208201905081810360008301526123608161209a565b9050919050565b60006020820190508181036000830152612380816120bd565b9050919050565b600060208201905081810360008301526123a0816120e0565b9050919050565b600060208201905081810360008301526123c081612103565b9050919050565b600060208201905081810360008301526123e081612126565b9050919050565b6000602082019050818103600083015261240081612149565b9050919050565b600060208201905081810360008301526124208161216c565b9050919050565b600060208201905061243c600083018461218f565b92915050565b6000602082019050612457600083018461219e565b92915050565b6000819050602082019050919050565b600081519050919050565b600081519050919050565b6000602082019050919050565b600082825260208201905092915050565b600082825260208201905092915050565b60006124bd82612605565b91506124c883612605565b9250827fffffffffffffffffffffffffffffffffffffffffffffffffffffffffffffffff038211156124fd576124fc6126ca565b5b828201905092915050565b600061251382612605565b915061251e83612605565b92508261252e5761252d6126f9565b5b828204905092915050565b600061254482612605565b915061254f83612605565b9250817fffffffffffffffffffffffffffffffffffffffffffffffffffffffffffffffff0483118215151615612588576125876126ca565b5b828202905092915050565b600061259e82612605565b91506125a983612605565b9250828210156125bc576125bb6126ca565b5b828203905092915050565b60006125d2826125e5565b9050919050565b60008115159050919050565b600073ffffffffffffffffffffffffffffffffffffffff82169050919050565b6000819050919050565b600060ff82169050919050565b60005b8381101561263a57808201518184015260208101905061261f565b83811115612649576000848401525b50505050565b6000600282049050600182168061266757607f821691505b6020821081141561267b5761267a612728565b5b50919050565b600061268c82612605565b91507fffffffffffffffffffffffffffffffffffffffffffffffffffffffffffffffff8214156126bf576126be6126ca565b5b600182019050919050565b7f4e487b7100000000000000000000000000000000000000000000000000000000600052601160045260246000fd5b7f4e487b7100000000000000000000000000000000000000000000000000000000600052601260045260246000fd5b7f4e487b7100000000000000000000000000000000000000000000000000000000600052602260045260246000fd5b6000601f19601f8301169050919050565b7f45524332303a207472616e7366657220746f20746865207a65726f206164647260008201527f6573730000000000000000000000000000000000000000000000000000000000602082015250565b7f457863656564696e6720616d6f756e74206f6620746f6b656e73000000000000600082015250565b7f45524332303a206275726e20616d6f756e7420657863656564732062616c616e60008201527f6365000000000000000000000000000000000000000000000000000000000000602082015250565b7f45524332303a20617070726f766520746f20746865207a65726f20616464726560008201527f7373000000000000000000000000000000000000000000000000000000000000602082015250565b7f45524332303a20696e73756666696369656e7420616c6c6f77616e6365000000600082015250565b7f45524332303a207472616e7366657220616d6f756e742065786365656473206260008201527f616c616e63650000000000000000000000000000000000000000000000000000602082015250565b7f476f7665726e6d656e7420646f6573206e6f74206f776e20616c6c20746f6b6560008201527f6e73000000000000000000000000000000000000000000000000000000000000602082015250565b7f496e73756666696369656e742066756e64730000000000000000000000000000600082015250565b7f596f7520646f6e2774206f776e2074686520746f6b656e732079657400000000600082015250565b7f45524332303a206275726e2066726f6d20746865207a65726f2061646472657360008201527f7300000000000000000000000000000000000000000000000000000000000000602082015250565b7f45524332303a207472616e736665722066726f6d20746865207a65726f20616460008201527f6472657373000000000000000000000000000000000000000000000000000000602082015250565b7f4e6f74206f6e2073616c65000000000000000000000000000000000000000000600082015250565b7f416c6c20636c61696d732068617665206265656e20636c61696d65642e20596f60008201527f752063616e206f6e6c79207472616e736665722066726f6d206e6f77206f6e00602082015250565b7f45524332303a20617070726f76652066726f6d20746865207a65726f2061646460008201527f7265737300000000000000000000000000000000000000000000000000000000602082015250565b7f45524332303a2064656372656173656420616c6c6f77616e63652062656c6f7760008201527f207a65726f000000000000000000000000000000000000000000000000000000602082015250565b7f45524332303a206d696e7420746f20746865207a65726f206164647265737300600082015250565b612b7d816125c7565b8114612b8857600080fd5b50565b612b9481612605565b8114612b9f57600080fd5b5056fea2646970667358221220a0455b90942076742a9f7d118ab2fb59eb9ef3e2f18656f8ca2367727954d45864736f6c63430008040033",
  "linkReferences": {},
  "deployedLinkReferences": {}
}