{
  "_format": "hh-sol-artifact-1",
  "contractName": "Property",
  "sourceName": "contracts/Property.sol",
  "abi": [
    {
      "inputs": [],
      "stateMutability": "nonpayable",
      "type": "constructor"
    },
    {
      "anonymous": false,
      "inputs": [
        {
          "indexed": true,
          "internalType": "address",
          "name": "owner",
          "type": "address"
        },
        {
          "indexed": true,
          "internalType": "address",
          "name": "approved",
          "type": "address"
        },
        {
          "indexed": true,
          "internalType": "uint256",
          "name": "tokenId",
          "type": "uint256"
        }
      ],
      "name": "Approval",
      "type": "event"
    },
    {
      "anonymous": false,
      "inputs": [
        {
          "indexed": true,
          "internalType": "address",
          "name": "owner",
          "type": "address"
        },
        {
          "indexed": true,
          "internalType": "address",
          "name": "operator",
          "type": "address"
        },
        {
          "indexed": false,
          "internalType": "bool",
          "name": "approved",
          "type": "bool"
        }
      ],
      "name": "ApprovalForAll",
      "type": "event"
    },
    {
      "anonymous": false,
      "inputs": [
        {
          "indexed": true,
          "internalType": "address",
          "name": "from",
          "type": "address"
        },
        {
          "indexed": true,
          "internalType": "address",
          "name": "to",
          "type": "address"
        },
        {
          "indexed": true,
          "internalType": "uint256",
          "name": "tokenId",
          "type": "uint256"
        }
      ],
      "name": "Transfer",
      "type": "event"
    },
    {
      "inputs": [
        {
          "internalType": "address",
          "name": "to",
          "type": "address"
        },
        {
          "internalType": "uint256",
          "name": "tokenId",
          "type": "uint256"
        }
      ],
      "name": "approve",
      "outputs": [],
      "stateMutability": "nonpayable",
      "type": "function"
    },
    {
      "inputs": [
        {
          "internalType": "address",
          "name": "owner",
          "type": "address"
        }
      ],
      "name": "balanceOf",
      "outputs": [
        {
          "internalType": "uint256",
          "name": "",
          "type": "uint256"
        }
      ],
      "stateMutability": "view",
      "type": "function"
    },
    {
      "inputs": [
        {
          "internalType": "string",
          "name": "_uri",
          "type": "string"
        },
        {
          "internalType": "string",
          "name": "_rip",
          "type": "string"
        }
      ],
      "name": "createProperty",
      "outputs": [
        {
          "internalType": "address",
          "name": "",
          "type": "address"
        }
      ],
      "stateMutability": "nonpayable",
      "type": "function"
    },
    {
      "inputs": [
        {
          "internalType": "uint256",
          "name": "_idProperty",
          "type": "uint256"
        },
        {
          "internalType": "string",
          "name": "_name",
          "type": "string"
        },
        {
          "internalType": "string",
          "name": "_symbol",
          "type": "string"
        },
        {
          "internalType": "uint256",
          "name": "_area",
          "type": "uint256"
        }
      ],
      "name": "createTokens",
      "outputs": [],
      "stateMutability": "nonpayable",
      "type": "function"
    },
    {
      "inputs": [
        {
          "internalType": "uint256",
          "name": "tokenId",
          "type": "uint256"
        }
      ],
      "name": "getApproved",
      "outputs": [
        {
          "internalType": "address",
          "name": "",
          "type": "address"
        }
      ],
      "stateMutability": "view",
      "type": "function"
    },
    {
      "inputs": [
        {
          "internalType": "string",
          "name": "rip",
          "type": "string"
        }
      ],
      "name": "getTokenURIByRIP",
      "outputs": [
        {
          "internalType": "string",
          "name": "",
          "type": "string"
        }
      ],
      "stateMutability": "view",
      "type": "function"
    },
    {
      "inputs": [],
      "name": "getTokenURIs",
      "outputs": [
        {
          "internalType": "string[]",
          "name": "",
          "type": "string[]"
        }
      ],
      "stateMutability": "view",
      "type": "function"
    },
    {
      "inputs": [
        {
          "internalType": "address",
          "name": "owner",
          "type": "address"
        },
        {
          "internalType": "address",
          "name": "operator",
          "type": "address"
        }
      ],
      "name": "isApprovedForAll",
      "outputs": [
        {
          "internalType": "bool",
          "name": "",
          "type": "bool"
        }
      ],
      "stateMutability": "view",
      "type": "function"
    },
    {
      "inputs": [],
      "name": "name",
      "outputs": [
        {
          "internalType": "string",
          "name": "",
          "type": "string"
        }
      ],
      "stateMutability": "view",
      "type": "function"
    },
    {
      "inputs": [],
      "name": "owner",
      "outputs": [
        {
          "internalType": "address",
          "name": "",
          "type": "address"
        }
      ],
      "stateMutability": "view",
      "type": "function"
    },
    {
      "inputs": [
        {
          "internalType": "uint256",
          "name": "tokenId",
          "type": "uint256"
        }
      ],
      "name": "ownerOf",
      "outputs": [
        {
          "internalType": "address",
          "name": "",
          "type": "address"
        }
      ],
      "stateMutability": "view",
      "type": "function"
    },
    {
      "inputs": [
        {
          "internalType": "uint256",
          "name": "",
          "type": "uint256"
        }
      ],
      "name": "propetiesERC20",
      "outputs": [
        {
          "internalType": "address",
          "name": "",
          "type": "address"
        }
      ],
      "stateMutability": "view",
      "type": "function"
    },
    {
      "inputs": [
        {
          "internalType": "address",
          "name": "from",
          "type": "address"
        },
        {
          "internalType": "address",
          "name": "to",
          "type": "address"
        },
        {
          "internalType": "uint256",
          "name": "tokenId",
          "type": "uint256"
        }
      ],
      "name": "safeTransferFrom",
      "outputs": [],
      "stateMutability": "nonpayable",
      "type": "function"
    },
    {
      "inputs": [
        {
          "internalType": "address",
          "name": "from",
          "type": "address"
        },
        {
          "internalType": "address",
          "name": "to",
          "type": "address"
        },
        {
          "internalType": "uint256",
          "name": "tokenId",
          "type": "uint256"
        },
        {
          "internalType": "bytes",
          "name": "data",
          "type": "bytes"
        }
      ],
      "name": "safeTransferFrom",
      "outputs": [],
      "stateMutability": "nonpayable",
      "type": "function"
    },
    {
      "inputs": [
        {
          "internalType": "address",
          "name": "operator",
          "type": "address"
        },
        {
          "internalType": "bool",
          "name": "approved",
          "type": "bool"
        }
      ],
      "name": "setApprovalForAll",
      "outputs": [],
      "stateMutability": "nonpayable",
      "type": "function"
    },
    {
      "inputs": [
        {
          "internalType": "bytes4",
          "name": "interfaceId",
          "type": "bytes4"
        }
      ],
      "name": "supportsInterface",
      "outputs": [
        {
          "internalType": "bool",
          "name": "",
          "type": "bool"
        }
      ],
      "stateMutability": "view",
      "type": "function"
    },
    {
      "inputs": [],
      "name": "symbol",
      "outputs": [
        {
          "internalType": "string",
          "name": "",
          "type": "string"
        }
      ],
      "stateMutability": "view",
      "type": "function"
    },
    {
      "inputs": [
        {
          "internalType": "uint256",
          "name": "_id",
          "type": "uint256"
        }
      ],
      "name": "tokenURI",
      "outputs": [
        {
          "internalType": "string",
          "name": "",
          "type": "string"
        }
      ],
      "stateMutability": "view",
      "type": "function"
    },
    {
      "inputs": [
        {
          "internalType": "string",
          "name": "",
          "type": "string"
        }
      ],
      "name": "tokenURIByRIP",
      "outputs": [
        {
          "internalType": "string",
          "name": "",
          "type": "string"
        }
      ],
      "stateMutability": "view",
      "type": "function"
    },
    {
      "inputs": [
        {
          "internalType": "uint256",
          "name": "",
          "type": "uint256"
        }
      ],
      "name": "tokenURIs",
      "outputs": [
        {
          "internalType": "string",
          "name": "",
          "type": "string"
        }
      ],
      "stateMutability": "view",
      "type": "function"
    },
    {
      "inputs": [
        {
          "internalType": "address",
          "name": "from",
          "type": "address"
        },
        {
          "internalType": "address",
          "name": "to",
          "type": "address"
        },
        {
          "internalType": "uint256",
          "name": "tokenId",
          "type": "uint256"
        }
      ],
      "name": "transferFrom",
      "outputs": [],
      "stateMutability": "nonpayable",
      "type": "function"
    }
  ],
  "bytecode": "0x60806040523480156200001157600080fd5b506040518060400160405280601281526020017f5265616c45737461746550726f706572747900000000000000000000000000008152506040518060400160405280600381526020017f5245500000000000000000000000000000000000000000000000000000000000815250816000908051906020019062000096929190620000f9565b508060019080519060200190620000af929190620000f9565b50505033600660006101000a81548173ffffffffffffffffffffffffffffffffffffffff021916908373ffffffffffffffffffffffffffffffffffffffff1602179055506200020e565b8280546200010790620001a9565b90600052602060002090601f0160209004810192826200012b576000855562000177565b82601f106200014657805160ff191683800117855562000177565b8280016001018555821562000177579182015b828111156200017657825182559160200191906001019062000159565b5b5090506200018691906200018a565b5090565b5b80821115620001a55760008160009055506001016200018b565b5090565b60006002820490506001821680620001c257607f821691505b60208210811415620001d957620001d8620001df565b5b50919050565b7f4e487b7100000000000000000000000000000000000000000000000000000000600052602260045260246000fd5b61627c806200021e6000396000f3fe60806040523480156200001157600080fd5b5060043610620001545760003560e01c806370a0823111620000c9578063aead1d991162000087578063aead1d9914620003ef578063b6d3564b1462000425578063b88d4fde1462000447578063c87b56dd1462000467578063e985e9c5146200049d578063f42e77a414620004d35762000154565b806370a08231146200031f5780638da5cb5b146200035557806395d89b411462000377578063a22cb4651462000399578063a8ba198d14620003b95762000154565b806323b872dd116200011757806323b872dd146200023d57806324fdeb22146200025d57806342842e0e14620002935780636352211e14620002b35780636c8b703f14620002e95762000154565b806301ffc9a7146200015957806306fdde03146200018f57806307460b6614620001b1578063081812fc14620001e7578063095ea7b3146200021d575b600080fd5b620001776004803603810190620001719190620022a5565b620004f3565b6040516200018691906200289e565b60405180910390f35b62000199620005d9565b604051620001a89190620028bb565b60405180910390f35b620001cf6004803603810190620001c9919062002342565b62000673565b604051620001de919062002809565b60405180910390f35b620002056004803603810190620001ff9190620023b5565b620006b9565b60405162000214919062002809565b60405180910390f35b6200023b600480360381019062000235919062002264565b62000701565b005b6200025b600480360381019062000255919062002148565b6200082a565b005b6200027b6004803603810190620002759190620022fd565b62000893565b6040516200028a9190620028bb565b60405180910390f35b620002b16004803603810190620002ab919062002148565b62000951565b005b620002d16004803603810190620002cb9190620023b5565b62000973565b604051620002e0919062002809565b60405180910390f35b620003076004803603810190620003019190620023b5565b620009ff565b604051620003169190620028bb565b60405180910390f35b6200033d6004803603810190620003379190620020db565b62000aa7565b6040516200034c919062002ab0565b60405180910390f35b6200035f62000b62565b6040516200036e919062002809565b60405180910390f35b6200038162000b88565b604051620003909190620028bb565b60405180910390f35b620003b76004803603810190620003b1919062002223565b62000c22565b005b620003d76004803603810190620003d19190620023b5565b62000c3c565b604051620003e6919062002809565b60405180910390f35b6200040d6004803603810190620004079190620022fd565b62000c6f565b6040516200041c9190620028bb565b60405180910390f35b6200042f62000d29565b6040516200043e91906200287a565b60405180910390f35b6200046560048036038101906200045f91906200219e565b62000ecf565b005b6200048560048036038101906200047f9190620023b5565b62000f3a565b604051620004949190620028bb565b60405180910390f35b620004bb6004803603810190620004b5919062002107565b62000fe7565b604051620004ca91906200289e565b60405180910390f35b620004f16004803603810190620004eb9190620023e1565b6200107b565b005b60007f80ac58cd000000000000000000000000000000000000000000000000000000007bffffffffffffffffffffffffffffffffffffffffffffffffffffffff1916827bffffffffffffffffffffffffffffffffffffffffffffffffffffffff19161480620005bf57507f5b5e139f000000000000000000000000000000000000000000000000000000007bffffffffffffffffffffffffffffffffffffffffffffffffffffffff1916827bffffffffffffffffffffffffffffffffffffffffffffffffffffffff1916145b80620005d25750620005d18262001194565b5b9050919050565b606060008054620005ea9062002d42565b80601f0160208091040260200160405190810160405280929190818152602001828054620006189062002d42565b8015620006695780601f106200063d5761010080835404028352916020019162000669565b820191906000526020600020905b8154815290600101906020018083116200064b57829003601f168201915b5050505050905090565b60006200068c3362000686600a620011fe565b6200120c565b620006a46200069c600a620011fe565b84846200143b565b620006b0600a620014a1565b30905092915050565b6000620006c682620014b7565b6004600083815260200190815260200160002060009054906101000a900473ffffffffffffffffffffffffffffffffffffffff169050919050565b60006200070e8262000973565b90508073ffffffffffffffffffffffffffffffffffffffff168373ffffffffffffffffffffffffffffffffffffffff16141562000782576040517f08c379a0000000000000000000000000000000000000000000000000000000008152600401620007799062002a6c565b60405180910390fd5b8073ffffffffffffffffffffffffffffffffffffffff16620007a362001507565b73ffffffffffffffffffffffffffffffffffffffff161480620007d75750620007d681620007d062001507565b62000fe7565b5b62000819576040517f08c379a0000000000000000000000000000000000000000000000000000000008152600401620008109062002a8e565b60405180910390fd5b6200082583836200150f565b505050565b6200083f6200083862001507565b82620015ca565b62000881576040517f08c379a000000000000000000000000000000000000000000000000000000000815260040162000878906200293a565b60405180910390fd5b6200088e83838362001667565b505050565b6009818051602081018201805184825260208301602085012081835280955050505050506000915090508054620008ca9062002d42565b80601f0160208091040260200160405190810160405280929190818152602001828054620008f89062002d42565b8015620009495780601f106200091d5761010080835404028352916020019162000949565b820191906000526020600020905b8154815290600101906020018083116200092b57829003601f168201915b505050505081565b6200096e8383836040518060200160405280600081525062000ecf565b505050565b600080620009818362001972565b9050600073ffffffffffffffffffffffffffffffffffffffff168173ffffffffffffffffffffffffffffffffffffffff161415620009f6576040517f08c379a0000000000000000000000000000000000000000000000000000000008152600401620009ed9062002a4a565b60405180910390fd5b80915050919050565b6008602052806000526040600020600091509050805462000a209062002d42565b80601f016020809104026020016040519081016040528092919081815260200182805462000a4e9062002d42565b801562000a9f5780601f1062000a735761010080835404028352916020019162000a9f565b820191906000526020600020905b81548152906001019060200180831162000a8157829003601f168201915b505050505081565b60008073ffffffffffffffffffffffffffffffffffffffff168273ffffffffffffffffffffffffffffffffffffffff16141562000b1b576040517f08c379a000000000000000000000000000000000000000000000000000000000815260040162000b129062002a06565b60405180910390fd5b600360008373ffffffffffffffffffffffffffffffffffffffff1673ffffffffffffffffffffffffffffffffffffffff168152602001908152602001600020549050919050565b600660009054906101000a900473ffffffffffffffffffffffffffffffffffffffff1681565b60606001805462000b999062002d42565b80601f016020809104026020016040519081016040528092919081815260200182805462000bc79062002d42565b801562000c185780601f1062000bec5761010080835404028352916020019162000c18565b820191906000526020600020905b81548152906001019060200180831162000bfa57829003601f168201915b5050505050905090565b62000c3862000c3062001507565b8383620019af565b5050565b60076020528060005260406000206000915054906101000a900473ffffffffffffffffffffffffffffffffffffffff1681565b606060098260405162000c839190620027f0565b9081526020016040518091039020805462000c9e9062002d42565b80601f016020809104026020016040519081016040528092919081815260200182805462000ccc9062002d42565b801562000d1d5780601f1062000cf15761010080835404028352916020019162000d1d565b820191906000526020600020905b81548152906001019060200180831162000cff57829003601f168201915b50505050509050919050565b6060600062000d39600a620011fe565b67ffffffffffffffff81111562000d79577f4e487b7100000000000000000000000000000000000000000000000000000000600052604160045260246000fd5b60405190808252806020026020018201604052801562000dae57816020015b606081526020019060019003908162000d985790505b50905060005b62000dc0600a620011fe565b81101562000ec75760086000828152602001908152602001600020805462000de89062002d42565b80601f016020809104026020016040519081016040528092919081815260200182805462000e169062002d42565b801562000e675780601f1062000e3b5761010080835404028352916020019162000e67565b820191906000526020600020905b81548152906001019060200180831162000e4957829003601f168201915b505050505082828151811062000ea6577f4e487b7100000000000000000000000000000000000000000000000000000000600052603260045260246000fd5b6020026020010181905250808062000ebe9062002dae565b91505062000db4565b508091505090565b62000ee462000edd62001507565b83620015ca565b62000f26576040517f08c379a000000000000000000000000000000000000000000000000000000000815260040162000f1d906200293a565b60405180910390fd5b62000f348484848462001b21565b50505050565b606060086000838152602001908152602001600020805462000f5c9062002d42565b80601f016020809104026020016040519081016040528092919081815260200182805462000f8a9062002d42565b801562000fdb5780601f1062000faf5761010080835404028352916020019162000fdb565b820191906000526020600020905b81548152906001019060200180831162000fbd57829003601f168201915b50505050509050919050565b6000600560008473ffffffffffffffffffffffffffffffffffffffff1673ffffffffffffffffffffffffffffffffffffffff16815260200190815260200160002060008373ffffffffffffffffffffffffffffffffffffffff1673ffffffffffffffffffffffffffffffffffffffff16815260200190815260200160002060009054906101000a900460ff16905092915050565b600660009054906101000a900473ffffffffffffffffffffffffffffffffffffffff1673ffffffffffffffffffffffffffffffffffffffff163373ffffffffffffffffffffffffffffffffffffffff1614620010d657600080fd5b60008383600660009054906101000a900473ffffffffffffffffffffffffffffffffffffffff16846040516200110c9062001ec6565b6200111b9493929190620028df565b604051809103906000f08015801562001138573d6000803e3d6000fd5b509050806007600087815260200190815260200160002060006101000a81548173ffffffffffffffffffffffffffffffffffffffff021916908373ffffffffffffffffffffffffffffffffffffffff1602179055505050505050565b60007f01ffc9a7000000000000000000000000000000000000000000000000000000007bffffffffffffffffffffffffffffffffffffffffffffffffffffffff1916827bffffffffffffffffffffffffffffffffffffffffffffffffffffffff1916149050919050565b600081600001549050919050565b600073ffffffffffffffffffffffffffffffffffffffff168273ffffffffffffffffffffffffffffffffffffffff1614156200127f576040517f08c379a0000000000000000000000000000000000000000000000000000000008152600401620012769062002a28565b60405180910390fd5b6200128a8162001b84565b15620012cd576040517f08c379a0000000000000000000000000000000000000000000000000000000008152600401620012c490620029a0565b60405180910390fd5b620012dd60008383600162001bc7565b620012e88162001b84565b156200132b576040517f08c379a00000000000000000000000000000000000000000000000000000000081526004016200132290620029a0565b60405180910390fd5b6001600360008473ffffffffffffffffffffffffffffffffffffffff1673ffffffffffffffffffffffffffffffffffffffff16815260200190815260200160002060008282540192505081905550816002600083815260200190815260200160002060006101000a81548173ffffffffffffffffffffffffffffffffffffffff021916908373ffffffffffffffffffffffffffffffffffffffff160217905550808273ffffffffffffffffffffffffffffffffffffffff16600073ffffffffffffffffffffffffffffffffffffffff167fddf252ad1be2c89b69c2b068fc378daa952ba7f163c4a11628f55a4df523b3ef60405160405180910390a46200143760008383600162001cf4565b5050565b816008600085815260200190815260200160002090805190602001906200146492919062001ed4565b5081600982604051620014789190620027f0565b908152602001604051809103902090805190602001906200149b92919062001ed4565b50505050565b6001816000016000828254019250508190555050565b620014c28162001b84565b62001504576040517f08c379a0000000000000000000000000000000000000000000000000000000008152600401620014fb9062002a4a565b60405180910390fd5b50565b600033905090565b816004600083815260200190815260200160002060006101000a81548173ffffffffffffffffffffffffffffffffffffffff021916908373ffffffffffffffffffffffffffffffffffffffff160217905550808273ffffffffffffffffffffffffffffffffffffffff16620015848362000973565b73ffffffffffffffffffffffffffffffffffffffff167f8c5be1e5ebec7d5bd14f71427d1e84f3dd0314c0f7b2291e5b200ac8c7c3b92560405160405180910390a45050565b600080620015d88362000973565b90508073ffffffffffffffffffffffffffffffffffffffff168473ffffffffffffffffffffffffffffffffffffffff1614806200161d57506200161c818562000fe7565b5b806200165e57508373ffffffffffffffffffffffffffffffffffffffff166200164684620006b9565b73ffffffffffffffffffffffffffffffffffffffff16145b91505092915050565b8273ffffffffffffffffffffffffffffffffffffffff16620016898262000973565b73ffffffffffffffffffffffffffffffffffffffff1614620016e2576040517f08c379a0000000000000000000000000000000000000000000000000000000008152600401620016d9906200297e565b60405180910390fd5b600073ffffffffffffffffffffffffffffffffffffffff168273ffffffffffffffffffffffffffffffffffffffff16141562001755576040517f08c379a00000000000000000000000000000000000000000000000000000000081526004016200174c90620029c2565b60405180910390fd5b62001764838383600162001bc7565b8273ffffffffffffffffffffffffffffffffffffffff16620017868262000973565b73ffffffffffffffffffffffffffffffffffffffff1614620017df576040517f08c379a0000000000000000000000000000000000000000000000000000000008152600401620017d6906200297e565b60405180910390fd5b6004600082815260200190815260200160002060006101000a81549073ffffffffffffffffffffffffffffffffffffffff02191690556001600360008573ffffffffffffffffffffffffffffffffffffffff1673ffffffffffffffffffffffffffffffffffffffff168152602001908152602001600020600082825403925050819055506001600360008473ffffffffffffffffffffffffffffffffffffffff1673ffffffffffffffffffffffffffffffffffffffff16815260200190815260200160002060008282540192505081905550816002600083815260200190815260200160002060006101000a81548173ffffffffffffffffffffffffffffffffffffffff021916908373ffffffffffffffffffffffffffffffffffffffff160217905550808273ffffffffffffffffffffffffffffffffffffffff168473ffffffffffffffffffffffffffffffffffffffff167fddf252ad1be2c89b69c2b068fc378daa952ba7f163c4a11628f55a4df523b3ef60405160405180910390a46200196d838383600162001cf4565b505050565b60006002600083815260200190815260200160002060009054906101000a900473ffffffffffffffffffffffffffffffffffffffff169050919050565b8173ffffffffffffffffffffffffffffffffffffffff168373ffffffffffffffffffffffffffffffffffffffff16141562001a21576040517f08c379a000000000000000000000000000000000000000000000000000000000815260040162001a1890620029e4565b60405180910390fd5b80600560008573ffffffffffffffffffffffffffffffffffffffff1673ffffffffffffffffffffffffffffffffffffffff16815260200190815260200160002060008473ffffffffffffffffffffffffffffffffffffffff1673ffffffffffffffffffffffffffffffffffffffff16815260200190815260200160002060006101000a81548160ff0219169083151502179055508173ffffffffffffffffffffffffffffffffffffffff168373ffffffffffffffffffffffffffffffffffffffff167f17307eab39ab6107e8899845ad3d59bd9653f200f220920489ca2b5937696c318360405162001b1491906200289e565b60405180910390a3505050565b62001b2e84848462001667565b62001b3c8484848462001cfa565b62001b7e576040517f08c379a000000000000000000000000000000000000000000000000000000000815260040162001b75906200295c565b60405180910390fd5b50505050565b60008073ffffffffffffffffffffffffffffffffffffffff1662001ba88362001972565b73ffffffffffffffffffffffffffffffffffffffff1614159050919050565b600181111562001cee57600073ffffffffffffffffffffffffffffffffffffffff168473ffffffffffffffffffffffffffffffffffffffff161462001c5f5780600360008673ffffffffffffffffffffffffffffffffffffffff1673ffffffffffffffffffffffffffffffffffffffff168152602001908152602001600020600082825462001c57919062002c4c565b925050819055505b600073ffffffffffffffffffffffffffffffffffffffff168373ffffffffffffffffffffffffffffffffffffffff161462001ced5780600360008573ffffffffffffffffffffffffffffffffffffffff1673ffffffffffffffffffffffffffffffffffffffff168152602001908152602001600020600082825462001ce5919062002bef565b925050819055505b5b50505050565b50505050565b600062001d1d8473ffffffffffffffffffffffffffffffffffffffff1662001ea3565b1562001e96578373ffffffffffffffffffffffffffffffffffffffff1663150b7a0262001d4962001507565b8786866040518563ffffffff1660e01b815260040162001d6d949392919062002826565b602060405180830381600087803b15801562001d8857600080fd5b505af192505050801562001dbc57506040513d601f19601f8201168201806040525081019062001db99190620022d1565b60015b62001e45573d806000811462001def576040519150601f19603f3d011682016040523d82523d6000602084013e62001df4565b606091505b5060008151141562001e3d576040517f08c379a000000000000000000000000000000000000000000000000000000000815260040162001e34906200295c565b60405180910390fd5b805181602001fd5b63150b7a0260e01b7bffffffffffffffffffffffffffffffffffffffffffffffffffffffff1916817bffffffffffffffffffffffffffffffffffffffffffffffffffffffff19161491505062001e9b565b600190505b949350505050565b6000808273ffffffffffffffffffffffffffffffffffffffff163b119050919050565b61307780620031d083390190565b82805462001ee29062002d42565b90600052602060002090601f01602090048101928262001f06576000855562001f52565b82601f1062001f2157805160ff191683800117855562001f52565b8280016001018555821562001f52579182015b8281111562001f5157825182559160200191906001019062001f34565b5b50905062001f61919062001f65565b5090565b5b8082111562001f8057600081600090555060010162001f66565b5090565b600062001f9b62001f958462002af6565b62002acd565b90508281526020810184848401111562001fb457600080fd5b62001fc184828562002cfd565b509392505050565b600062001fe062001fda8462002b2c565b62002acd565b90508281526020810184848401111562001ff957600080fd5b6200200684828562002cfd565b509392505050565b6000813590506200201f8162003167565b92915050565b600081359050620020368162003181565b92915050565b6000813590506200204d816200319b565b92915050565b60008151905062002064816200319b565b92915050565b600082601f8301126200207c57600080fd5b81356200208e84826020860162001f84565b91505092915050565b600082601f830112620020a957600080fd5b8135620020bb84826020860162001fc9565b91505092915050565b600081359050620020d581620031b5565b92915050565b600060208284031215620020ee57600080fd5b6000620020fe848285016200200e565b91505092915050565b600080604083850312156200211b57600080fd5b60006200212b858286016200200e565b92505060206200213e858286016200200e565b9150509250929050565b6000806000606084860312156200215e57600080fd5b60006200216e868287016200200e565b935050602062002181868287016200200e565b92505060406200219486828701620020c4565b9150509250925092565b60008060008060808587031215620021b557600080fd5b6000620021c5878288016200200e565b9450506020620021d8878288016200200e565b9350506040620021eb87828801620020c4565b925050606085013567ffffffffffffffff8111156200220957600080fd5b62002217878288016200206a565b91505092959194509250565b600080604083850312156200223757600080fd5b600062002247858286016200200e565b92505060206200225a8582860162002025565b9150509250929050565b600080604083850312156200227857600080fd5b600062002288858286016200200e565b92505060206200229b85828601620020c4565b9150509250929050565b600060208284031215620022b857600080fd5b6000620022c8848285016200203c565b91505092915050565b600060208284031215620022e457600080fd5b6000620022f48482850162002053565b91505092915050565b6000602082840312156200231057600080fd5b600082013567ffffffffffffffff8111156200232b57600080fd5b620023398482850162002097565b91505092915050565b600080604083850312156200235657600080fd5b600083013567ffffffffffffffff8111156200237157600080fd5b6200237f8582860162002097565b925050602083013567ffffffffffffffff8111156200239d57600080fd5b620023ab8582860162002097565b9150509250929050565b600060208284031215620023c857600080fd5b6000620023d884828501620020c4565b91505092915050565b60008060008060808587031215620023f857600080fd5b60006200240887828801620020c4565b945050602085013567ffffffffffffffff8111156200242657600080fd5b620024348782880162002097565b935050604085013567ffffffffffffffff8111156200245257600080fd5b620024608782880162002097565b92505060606200247387828801620020c4565b91505092959194509250565b60006200248d838362002579565b905092915050565b620024a08162002c87565b82525050565b6000620024b38262002b72565b620024bf818562002ba0565b935083602082028501620024d38562002b62565b8060005b85811015620025155784840389528151620024f385826200247f565b9450620025008362002b93565b925060208a01995050600181019050620024d7565b50829750879550505050505092915050565b620025328162002c9b565b82525050565b6000620025458262002b7d565b62002551818562002bb1565b93506200256381856020860162002d0c565b6200256e8162002e89565b840191505092915050565b6000620025868262002b88565b62002592818562002bc2565b9350620025a481856020860162002d0c565b620025af8162002e89565b840191505092915050565b6000620025c78262002b88565b620025d3818562002bd3565b9350620025e581856020860162002d0c565b620025f08162002e89565b840191505092915050565b6000620026088262002b88565b62002614818562002be4565b93506200262681856020860162002d0c565b80840191505092915050565b600062002641602d8362002bd3565b91506200264e8262002e9a565b604082019050919050565b60006200266860328362002bd3565b9150620026758262002ee9565b604082019050919050565b60006200268f60258362002bd3565b91506200269c8262002f38565b604082019050919050565b6000620026b6601c8362002bd3565b9150620026c38262002f87565b602082019050919050565b6000620026dd60248362002bd3565b9150620026ea8262002fb0565b604082019050919050565b60006200270460198362002bd3565b9150620027118262002fff565b602082019050919050565b60006200272b60298362002bd3565b9150620027388262003028565b604082019050919050565b60006200275260208362002bd3565b91506200275f8262003077565b602082019050919050565b60006200277960188362002bd3565b91506200278682620030a0565b602082019050919050565b6000620027a060218362002bd3565b9150620027ad82620030c9565b604082019050919050565b6000620027c7603d8362002bd3565b9150620027d48262003118565b604082019050919050565b620027ea8162002cf3565b82525050565b6000620027fe8284620025fb565b915081905092915050565b600060208201905062002820600083018462002495565b92915050565b60006080820190506200283d600083018762002495565b6200284c602083018662002495565b6200285b6040830185620027df565b81810360608301526200286f818462002538565b905095945050505050565b60006020820190508181036000830152620028968184620024a6565b905092915050565b6000602082019050620028b5600083018462002527565b92915050565b60006020820190508181036000830152620028d78184620025ba565b905092915050565b60006080820190508181036000830152620028fb8187620025ba565b90508181036020830152620029118186620025ba565b905062002922604083018562002495565b620029316060830184620027df565b95945050505050565b60006020820190508181036000830152620029558162002632565b9050919050565b60006020820190508181036000830152620029778162002659565b9050919050565b60006020820190508181036000830152620029998162002680565b9050919050565b60006020820190508181036000830152620029bb81620026a7565b9050919050565b60006020820190508181036000830152620029dd81620026ce565b9050919050565b60006020820190508181036000830152620029ff81620026f5565b9050919050565b6000602082019050818103600083015262002a21816200271c565b9050919050565b6000602082019050818103600083015262002a438162002743565b9050919050565b6000602082019050818103600083015262002a65816200276a565b9050919050565b6000602082019050818103600083015262002a878162002791565b9050919050565b6000602082019050818103600083015262002aa981620027b8565b9050919050565b600060208201905062002ac76000830184620027df565b92915050565b600062002ad962002aec565b905062002ae7828262002d78565b919050565b6000604051905090565b600067ffffffffffffffff82111562002b145762002b1362002e5a565b5b62002b1f8262002e89565b9050602081019050919050565b600067ffffffffffffffff82111562002b4a5762002b4962002e5a565b5b62002b558262002e89565b9050602081019050919050565b6000819050602082019050919050565b600081519050919050565b600081519050919050565b600081519050919050565b6000602082019050919050565b600082825260208201905092915050565b600082825260208201905092915050565b600082825260208201905092915050565b600082825260208201905092915050565b600081905092915050565b600062002bfc8262002cf3565b915062002c098362002cf3565b9250827fffffffffffffffffffffffffffffffffffffffffffffffffffffffffffffffff0382111562002c415762002c4062002dfc565b5b828201905092915050565b600062002c598262002cf3565b915062002c668362002cf3565b92508282101562002c7c5762002c7b62002dfc565b5b828203905092915050565b600062002c948262002cd3565b9050919050565b60008115159050919050565b60007fffffffff0000000000000000000000000000000000000000000000000000000082169050919050565b600073ffffffffffffffffffffffffffffffffffffffff82169050919050565b6000819050919050565b82818337600083830152505050565b60005b8381101562002d2c57808201518184015260208101905062002d0f565b8381111562002d3c576000848401525b50505050565b6000600282049050600182168062002d5b57607f821691505b6020821081141562002d725762002d7162002e2b565b5b50919050565b62002d838262002e89565b810181811067ffffffffffffffff8211171562002da55762002da462002e5a565b5b80604052505050565b600062002dbb8262002cf3565b91507fffffffffffffffffffffffffffffffffffffffffffffffffffffffffffffffff82141562002df15762002df062002dfc565b5b600182019050919050565b7f4e487b7100000000000000000000000000000000000000000000000000000000600052601160045260246000fd5b7f4e487b7100000000000000000000000000000000000000000000000000000000600052602260045260246000fd5b7f4e487b7100000000000000000000000000000000000000000000000000000000600052604160045260246000fd5b6000601f19601f8301169050919050565b7f4552433732313a2063616c6c6572206973206e6f7420746f6b656e206f776e6560008201527f72206f7220617070726f76656400000000000000000000000000000000000000602082015250565b7f4552433732313a207472616e7366657220746f206e6f6e20455243373231526560008201527f63656976657220696d706c656d656e7465720000000000000000000000000000602082015250565b7f4552433732313a207472616e736665722066726f6d20696e636f72726563742060008201527f6f776e6572000000000000000000000000000000000000000000000000000000602082015250565b7f4552433732313a20746f6b656e20616c7265616479206d696e74656400000000600082015250565b7f4552433732313a207472616e7366657220746f20746865207a65726f2061646460008201527f7265737300000000000000000000000000000000000000000000000000000000602082015250565b7f4552433732313a20617070726f766520746f2063616c6c657200000000000000600082015250565b7f4552433732313a2061646472657373207a65726f206973206e6f74206120766160008201527f6c6964206f776e65720000000000000000000000000000000000000000000000602082015250565b7f4552433732313a206d696e7420746f20746865207a65726f2061646472657373600082015250565b7f4552433732313a20696e76616c696420746f6b656e2049440000000000000000600082015250565b7f4552433732313a20617070726f76616c20746f2063757272656e74206f776e6560008201527f7200000000000000000000000000000000000000000000000000000000000000602082015250565b7f4552433732313a20617070726f76652063616c6c6572206973206e6f7420746f60008201527f6b656e206f776e6572206f7220617070726f76656420666f7220616c6c000000602082015250565b620031728162002c87565b81146200317e57600080fd5b50565b6200318c8162002c9b565b81146200319857600080fd5b50565b620031a68162002ca7565b8114620031b257600080fd5b50565b620031c08162002cf3565b8114620031cc57600080fd5b5056fe60806040523480156200001157600080fd5b50604051620030773803806200307783398181016040528101906200003791906200020f565b8383816003908051906020019062000051929190620000bf565b5080600490805190602001906200006a929190620000bf565b50505081600760006101000a81548173ffffffffffffffffffffffffffffffffffffffff021916908373ffffffffffffffffffffffffffffffffffffffff16021790555080600581905550505050506200048f565b828054620000cd9062000380565b90600052602060002090601f016020900481019282620000f157600085556200013d565b82601f106200010c57805160ff19168380011785556200013d565b828001600101855582156200013d579182015b828111156200013c5782518255916020019190600101906200011f565b5b5090506200014c919062000150565b5090565b5b808211156200016b57600081600090555060010162000151565b5090565b6000620001866200018084620002d6565b620002ad565b9050828152602081018484840111156200019f57600080fd5b620001ac8482856200034a565b509392505050565b600081519050620001c5816200045b565b92915050565b600082601f830112620001dd57600080fd5b8151620001ef8482602086016200016f565b91505092915050565b600081519050620002098162000475565b92915050565b600080600080608085870312156200022657600080fd5b600085015167ffffffffffffffff8111156200024157600080fd5b6200024f87828801620001cb565b945050602085015167ffffffffffffffff8111156200026d57600080fd5b6200027b87828801620001cb565b93505060406200028e87828801620001b4565b9250506060620002a187828801620001f8565b91505092959194509250565b6000620002b9620002cc565b9050620002c78282620003b6565b919050565b6000604051905090565b600067ffffffffffffffff821115620002f457620002f36200041b565b5b620002ff826200044a565b9050602081019050919050565b6000620003198262000320565b9050919050565b600073ffffffffffffffffffffffffffffffffffffffff82169050919050565b6000819050919050565b60005b838110156200036a5780820151818401526020810190506200034d565b838111156200037a576000848401525b50505050565b600060028204905060018216806200039957607f821691505b60208210811415620003b057620003af620003ec565b5b50919050565b620003c1826200044a565b810181811067ffffffffffffffff82111715620003e357620003e26200041b565b5b80604052505050565b7f4e487b7100000000000000000000000000000000000000000000000000000000600052602260045260246000fd5b7f4e487b7100000000000000000000000000000000000000000000000000000000600052604160045260246000fd5b6000601f19601f8301169050919050565b62000466816200030c565b81146200047257600080fd5b50565b620004808162000340565b81146200048c57600080fd5b50565b612bd8806200049f6000396000f3fe6080604052600436106101355760003560e01c80637824407f116100ab578063a457c2d71161006f578063a457c2d714610400578063a9059cbb1461043d578063aa8c217c1461047a578063c0e5b611146104a5578063dd62ed3e146104e2578063f8a14f461461051f57610135565b80637824407f1461032b5780638da5cb5b1461035657806395d89b411461038157806398d29b35146103ac578063a0e67e2b146103d557610135565b8063313ce567116100fd578063313ce5671461023557806339509351146102605780633fa4f2451461029d57806348c54b9d146102c857806368f8fc10146102d257806370a08231146102ee57610135565b806306fdde031461013a57806308003f7814610165578063095ea7b31461019057806318160ddd146101cd57806323b872dd146101f8575b600080fd5b34801561014657600080fd5b5061014f61055c565b60405161015c9190612205565b60405180910390f35b34801561017157600080fd5b5061017a6105ee565b60405161018791906121ea565b60405180910390f35b34801561019c57600080fd5b506101b760048036038101906101b29190611dcf565b6106b7565b6040516101c491906121ea565b60405180910390f35b3480156101d957600080fd5b506101e26106da565b6040516101ef9190612427565b60405180910390f35b34801561020457600080fd5b5061021f600480360381019061021a9190611d80565b6106e4565b60405161022c91906121ea565b60405180910390f35b34801561024157600080fd5b5061024a610713565b6040516102579190612442565b60405180910390f35b34801561026c57600080fd5b5061028760048036038101906102829190611dcf565b61071c565b60405161029491906121ea565b60405180910390f35b3480156102a957600080fd5b506102b2610753565b6040516102bf9190612427565b60405180910390f35b6102d0610759565b005b6102ec60048036038101906102e79190611dcf565b6108d7565b005b3480156102fa57600080fd5b5061031560048036038101906103109190611d1b565b610a12565b6040516103229190612427565b60405180910390f35b34801561033757600080fd5b50610340610a5a565b60405161034d9190612427565b60405180910390f35b34801561036257600080fd5b5061036b610a60565b60405161037891906121ad565b60405180910390f35b34801561038d57600080fd5b50610396610a86565b6040516103a39190612205565b60405180910390f35b3480156103b857600080fd5b506103d360048036038101906103ce9190611d44565b610b18565b005b3480156103e157600080fd5b506103ea610e49565b6040516103f791906121c8565b60405180910390f35b34801561040c57600080fd5b5061042760048036038101906104229190611dcf565b610ed7565b60405161043491906121ea565b60405180910390f35b34801561044957600080fd5b50610464600480360381019061045f9190611dcf565b610f4e565b60405161047191906121ea565b60405180910390f35b34801561048657600080fd5b5061048f610f71565b60405161049c9190612427565b60405180910390f35b3480156104b157600080fd5b506104cc60048036038101906104c79190611e0b565b610f77565b6040516104d991906121ea565b60405180910390f35b3480156104ee57600080fd5b5061050960048036038101906105049190611d44565b610fd3565b6040516105169190612427565b60405180910390f35b34801561052b57600080fd5b5061054660048036038101906105419190611e5a565b61105a565b60405161055391906121ad565b60405180910390f35b60606003805461056b9061264f565b80601f01602080910402602001604051908101604052809291908181526020018280546105979061264f565b80156105e45780601f106105b9576101008083540402835291602001916105e4565b820191906000526020600020905b8154815290600101906020018083116105c757829003601f168201915b5050505050905090565b6000600760009054906101000a900473ffffffffffffffffffffffffffffffffffffffff1673ffffffffffffffffffffffffffffffffffffffff163373ffffffffffffffffffffffffffffffffffffffff161461064a57600080fd5b60085461065d610658611099565b610a12565b1461069d576040517f08c379a0000000000000000000000000000000000000000000000000000000008152600401610694906122e7565b60405180910390fd5b6106b06106a8611099565b6008546110a1565b6001905090565b6000806106c2611099565b90506106cf81858561126f565b600191505092915050565b6000600254905090565b6000806106ef611099565b90506106fc85828561143a565b6107078585856114c6565b60019150509392505050565b60006012905090565b600080610727611099565b90506107488185856107398589610fd3565b61074391906124b2565b61126f565b600191505092915050565b60065481565b6005546008541061079f576040517f08c379a0000000000000000000000000000000000000000000000000000000008152600401610796906123a7565b60405180910390fd5b6006543410156107e4576040517f08c379a00000000000000000000000000000000000000000000000000000000081526004016107db90612307565b60405180910390fd5b6006546008546107f49190612539565b341115610836576040517f08c379a000000000000000000000000000000000000000000000000000000000815260040161082d90612247565b60405180910390fd5b6000600654346108469190612508565b9050610852338261173e565b600760009054906101000a900473ffffffffffffffffffffffffffffffffffffffff1673ffffffffffffffffffffffffffffffffffffffff166108fc349081150290604051600060405180830381858888f193505050501580156108ba573d6000803e3d6000fd5b5080600860008282546108cd91906124b2565b9250508190555050565b600061090583600760009054906101000a900473ffffffffffffffffffffffffffffffffffffffff16610fd3565b11610945576040517f08c379a000000000000000000000000000000000000000000000000000000000815260040161093c90612387565b60405180910390fd5b600b60008373ffffffffffffffffffffffffffffffffffffffff1673ffffffffffffffffffffffffffffffffffffffff1681526020019081526020016000205434101561099157600080fd5b600a60003373ffffffffffffffffffffffffffffffffffffffff1673ffffffffffffffffffffffffffffffffffffffff16815260200190815260200160002060008373ffffffffffffffffffffffffffffffffffffffff1673ffffffffffffffffffffffffffffffffffffffff168152602001908152602001600020505050565b60008060008373ffffffffffffffffffffffffffffffffffffffff1673ffffffffffffffffffffffffffffffffffffffff168152602001908152602001600020549050919050565b60085481565b600760009054906101000a900473ffffffffffffffffffffffffffffffffffffffff1681565b606060048054610a959061264f565b80601f0160208091040260200160405190810160405280929190818152602001828054610ac19061264f565b8015610b0e5780601f10610ae357610100808354040283529160200191610b0e565b820191906000526020600020905b815481529060010190602001808311610af157829003601f168201915b5050505050905090565b600760009054906101000a900473ffffffffffffffffffffffffffffffffffffffff1673ffffffffffffffffffffffffffffffffffffffff163373ffffffffffffffffffffffffffffffffffffffff1614610b7257600080fd5b6000600a60008373ffffffffffffffffffffffffffffffffffffffff1673ffffffffffffffffffffffffffffffffffffffff16815260200190815260200160002060008473ffffffffffffffffffffffffffffffffffffffff1673ffffffffffffffffffffffffffffffffffffffff1681526020019081526020016000205411610c31576040517f08c379a0000000000000000000000000000000000000000000000000000000008152600401610c2890612327565b60405180910390fd5b610cb781600a60008473ffffffffffffffffffffffffffffffffffffffff1673ffffffffffffffffffffffffffffffffffffffff16815260200190815260200160002060008573ffffffffffffffffffffffffffffffffffffffff1673ffffffffffffffffffffffffffffffffffffffff16815260200190815260200160002054610f4e565b508173ffffffffffffffffffffffffffffffffffffffff166108fc600b60008573ffffffffffffffffffffffffffffffffffffffff1673ffffffffffffffffffffffffffffffffffffffff16815260200190815260200160002054600a60008573ffffffffffffffffffffffffffffffffffffffff1673ffffffffffffffffffffffffffffffffffffffff16815260200190815260200160002060008673ffffffffffffffffffffffffffffffffffffffff1673ffffffffffffffffffffffffffffffffffffffff16815260200190815260200160002054610d999190612539565b9081150290604051600060405180830381858888f19350505050158015610dc4573d6000803e3d6000fd5b50600a60008273ffffffffffffffffffffffffffffffffffffffff1673ffffffffffffffffffffffffffffffffffffffff16815260200190815260200160002060008373ffffffffffffffffffffffffffffffffffffffff1673ffffffffffffffffffffffffffffffffffffffff168152602001908152602001600020600090555050565b60606009805480602002602001604051908101604052809291908181526020018280548015610ecd57602002820191906000526020600020905b8160009054906101000a900473ffffffffffffffffffffffffffffffffffffffff1673ffffffffffffffffffffffffffffffffffffffff1681526020019060010190808311610e83575b5050505050905090565b600080610ee2611099565b90506000610ef08286610fd3565b905083811015610f35576040517f08c379a0000000000000000000000000000000000000000000000000000000008152600401610f2c906123e7565b60405180910390fd5b610f42828686840361126f565b60019250505092915050565b600080610f59611099565b9050610f668185856114c6565b600191505092915050565b60055481565b6000610f8384846106b7565b5081600b60003373ffffffffffffffffffffffffffffffffffffffff1673ffffffffffffffffffffffffffffffffffffffff16815260200190815260200160002081905550600190509392505050565b6000600160008473ffffffffffffffffffffffffffffffffffffffff1673ffffffffffffffffffffffffffffffffffffffff16815260200190815260200160002060008373ffffffffffffffffffffffffffffffffffffffff1673ffffffffffffffffffffffffffffffffffffffff16815260200190815260200160002054905092915050565b6009818154811061106a57600080fd5b906000526020600020016000915054906101000a900473ffffffffffffffffffffffffffffffffffffffff1681565b600033905090565b600073ffffffffffffffffffffffffffffffffffffffff168273ffffffffffffffffffffffffffffffffffffffff161415611111576040517f08c379a000000000000000000000000000000000000000000000000000000000815260040161110890612347565b60405180910390fd5b61111d82600083611895565b60008060008473ffffffffffffffffffffffffffffffffffffffff1673ffffffffffffffffffffffffffffffffffffffff168152602001908152602001600020549050818110156111a3576040517f08c379a000000000000000000000000000000000000000000000000000000000815260040161119a90612267565b60405180910390fd5b8181036000808573ffffffffffffffffffffffffffffffffffffffff1673ffffffffffffffffffffffffffffffffffffffff1681526020019081526020016000208190555081600260008282540392505081905550600073ffffffffffffffffffffffffffffffffffffffff168373ffffffffffffffffffffffffffffffffffffffff167fddf252ad1be2c89b69c2b068fc378daa952ba7f163c4a11628f55a4df523b3ef846040516112569190612427565b60405180910390a361126a8360008461189a565b505050565b600073ffffffffffffffffffffffffffffffffffffffff168373ffffffffffffffffffffffffffffffffffffffff1614156112df576040517f08c379a00000000000000000000000000000000000000000000000000000000081526004016112d6906123c7565b60405180910390fd5b600073ffffffffffffffffffffffffffffffffffffffff168273ffffffffffffffffffffffffffffffffffffffff16141561134f576040517f08c379a000000000000000000000000000000000000000000000000000000000815260040161134690612287565b60405180910390fd5b80600160008573ffffffffffffffffffffffffffffffffffffffff1673ffffffffffffffffffffffffffffffffffffffff16815260200190815260200160002060008473ffffffffffffffffffffffffffffffffffffffff1673ffffffffffffffffffffffffffffffffffffffff168152602001908152602001600020819055508173ffffffffffffffffffffffffffffffffffffffff168373ffffffffffffffffffffffffffffffffffffffff167f8c5be1e5ebec7d5bd14f71427d1e84f3dd0314c0f7b2291e5b200ac8c7c3b9258360405161142d9190612427565b60405180910390a3505050565b60006114468484610fd3565b90507fffffffffffffffffffffffffffffffffffffffffffffffffffffffffffffffff81146114c057818110156114b2576040517f08c379a00000000000000000000000000000000000000000000000000000000081526004016114a9906122a7565b60405180910390fd5b6114bf848484840361126f565b5b50505050565b600073ffffffffffffffffffffffffffffffffffffffff168373ffffffffffffffffffffffffffffffffffffffff161415611536576040517f08c379a000000000000000000000000000000000000000000000000000000000815260040161152d90612367565b60405180910390fd5b600073ffffffffffffffffffffffffffffffffffffffff168273ffffffffffffffffffffffffffffffffffffffff1614156115a6576040517f08c379a000000000000000000000000000000000000000000000000000000000815260040161159d90612227565b60405180910390fd5b6115b1838383611895565b60008060008573ffffffffffffffffffffffffffffffffffffffff1673ffffffffffffffffffffffffffffffffffffffff16815260200190815260200160002054905081811015611637576040517f08c379a000000000000000000000000000000000000000000000000000000000815260040161162e906122c7565b60405180910390fd5b8181036000808673ffffffffffffffffffffffffffffffffffffffff1673ffffffffffffffffffffffffffffffffffffffff16815260200190815260200160002081905550816000808573ffffffffffffffffffffffffffffffffffffffff1673ffffffffffffffffffffffffffffffffffffffff168152602001908152602001600020600082825401925050819055508273ffffffffffffffffffffffffffffffffffffffff168473ffffffffffffffffffffffffffffffffffffffff167fddf252ad1be2c89b69c2b068fc378daa952ba7f163c4a11628f55a4df523b3ef846040516117259190612427565b60405180910390a361173884848461189a565b50505050565b600073ffffffffffffffffffffffffffffffffffffffff168273ffffffffffffffffffffffffffffffffffffffff1614156117ae576040517f08c379a00000000000000000000000000000000000000000000000000000000081526004016117a590612407565b60405180910390fd5b6117ba60008383611895565b80600260008282546117cc91906124b2565b92505081905550806000808473ffffffffffffffffffffffffffffffffffffffff1673ffffffffffffffffffffffffffffffffffffffff168152602001908152602001600020600082825401925050819055508173ffffffffffffffffffffffffffffffffffffffff16600073ffffffffffffffffffffffffffffffffffffffff167fddf252ad1be2c89b69c2b068fc378daa952ba7f163c4a11628f55a4df523b3ef8360405161187d9190612427565b60405180910390a36118916000838361189a565b5050565b505050565b600073ffffffffffffffffffffffffffffffffffffffff168373ffffffffffffffffffffffffffffffffffffffff161415611937576009829080600181540180825580915050600190039060005260206000200160009091909190916101000a81548173ffffffffffffffffffffffffffffffffffffffff021916908373ffffffffffffffffffffffffffffffffffffffff160217905550611c45565b600073ffffffffffffffffffffffffffffffffffffffff168273ffffffffffffffffffffffffffffffffffffffff1614156119be576040518060200160405280600073ffffffffffffffffffffffffffffffffffffffff1673ffffffffffffffffffffffffffffffffffffffff1681525060099060016119b8929190611c4a565b50611c44565b60005b600980549050811015611b72578373ffffffffffffffffffffffffffffffffffffffff1660098281548110611a1f577f4e487b7100000000000000000000000000000000000000000000000000000000600052603260045260246000fd5b9060005260206000200160009054906101000a900473ffffffffffffffffffffffffffffffffffffffff1673ffffffffffffffffffffffffffffffffffffffff161415611b5f5760096001600980549050611a7a9190612593565b81548110611ab1577f4e487b7100000000000000000000000000000000000000000000000000000000600052603260045260246000fd5b9060005260206000200160009054906101000a900473ffffffffffffffffffffffffffffffffffffffff1660098281548110611b16577f4e487b7100000000000000000000000000000000000000000000000000000000600052603260045260246000fd5b9060005260206000200160006101000a81548173ffffffffffffffffffffffffffffffffffffffff021916908373ffffffffffffffffffffffffffffffffffffffff1602179055505b8080611b6a90612681565b9150506119c1565b506009805480611bab577f4e487b7100000000000000000000000000000000000000000000000000000000600052603160045260246000fd5b6001900381819060005260206000200160006101000a81549073ffffffffffffffffffffffffffffffffffffffff021916905590556009829080600181540180825580915050600190039060005260206000200160009091909190916101000a81548173ffffffffffffffffffffffffffffffffffffffff021916908373ffffffffffffffffffffffffffffffffffffffff1602179055505b5b505050565b828054828255906000526020600020908101928215611cc3579160200282015b82811115611cc25782518260006101000a81548173ffffffffffffffffffffffffffffffffffffffff021916908373ffffffffffffffffffffffffffffffffffffffff16021790555091602001919060010190611c6a565b5b509050611cd09190611cd4565b5090565b5b80821115611ced576000816000905550600101611cd5565b5090565b600081359050611d0081612b74565b92915050565b600081359050611d1581612b8b565b92915050565b600060208284031215611d2d57600080fd5b6000611d3b84828501611cf1565b91505092915050565b60008060408385031215611d5757600080fd5b6000611d6585828601611cf1565b9250506020611d7685828601611cf1565b9150509250929050565b600080600060608486031215611d9557600080fd5b6000611da386828701611cf1565b9350506020611db486828701611cf1565b9250506040611dc586828701611d06565b9150509250925092565b60008060408385031215611de257600080fd5b6000611df085828601611cf1565b9250506020611e0185828601611d06565b9150509250929050565b600080600060608486031215611e2057600080fd5b6000611e2e86828701611cf1565b9350506020611e3f86828701611d06565b9250506040611e5086828701611d06565b9150509250925092565b600060208284031215611e6c57600080fd5b6000611e7a84828501611d06565b91505092915050565b6000611e8f8383611e9b565b60208301905092915050565b611ea4816125c7565b82525050565b611eb3816125c7565b82525050565b6000611ec48261246d565b611ece8185612490565b9350611ed98361245d565b8060005b83811015611f0a578151611ef18882611e83565b9750611efc83612483565b925050600181019050611edd565b5085935050505092915050565b611f20816125d9565b82525050565b6000611f3182612478565b611f3b81856124a1565b9350611f4b81856020860161261c565b611f5481612757565b840191505092915050565b6000611f6c6023836124a1565b9150611f7782612768565b604082019050919050565b6000611f8f601a836124a1565b9150611f9a826127b7565b602082019050919050565b6000611fb26022836124a1565b9150611fbd826127e0565b604082019050919050565b6000611fd56022836124a1565b9150611fe08261282f565b604082019050919050565b6000611ff8601d836124a1565b91506120038261287e565b602082019050919050565b600061201b6026836124a1565b9150612026826128a7565b604082019050919050565b600061203e6022836124a1565b9150612049826128f6565b604082019050919050565b60006120616012836124a1565b915061206c82612945565b602082019050919050565b6000612084601c836124a1565b915061208f8261296e565b602082019050919050565b60006120a76021836124a1565b91506120b282612997565b604082019050919050565b60006120ca6025836124a1565b91506120d5826129e6565b604082019050919050565b60006120ed600b836124a1565b91506120f882612a35565b602082019050919050565b6000612110603f836124a1565b915061211b82612a5e565b604082019050919050565b60006121336024836124a1565b915061213e82612aad565b604082019050919050565b60006121566025836124a1565b915061216182612afc565b604082019050919050565b6000612179601f836124a1565b915061218482612b4b565b602082019050919050565b61219881612605565b82525050565b6121a78161260f565b82525050565b60006020820190506121c26000830184611eaa565b92915050565b600060208201905081810360008301526121e28184611eb9565b905092915050565b60006020820190506121ff6000830184611f17565b92915050565b6000602082019050818103600083015261221f8184611f26565b905092915050565b6000602082019050818103600083015261224081611f5f565b9050919050565b6000602082019050818103600083015261226081611f82565b9050919050565b6000602082019050818103600083015261228081611fa5565b9050919050565b600060208201905081810360008301526122a081611fc8565b9050919050565b600060208201905081810360008301526122c081611feb565b9050919050565b600060208201905081810360008301526122e08161200e565b9050919050565b6000602082019050818103600083015261230081612031565b9050919050565b6000602082019050818103600083015261232081612054565b9050919050565b6000602082019050818103600083015261234081612077565b9050919050565b600060208201905081810360008301526123608161209a565b9050919050565b60006020820190508181036000830152612380816120bd565b9050919050565b600060208201905081810360008301526123a0816120e0565b9050919050565b600060208201905081810360008301526123c081612103565b9050919050565b600060208201905081810360008301526123e081612126565b9050919050565b6000602082019050818103600083015261240081612149565b9050919050565b600060208201905081810360008301526124208161216c565b9050919050565b600060208201905061243c600083018461218f565b92915050565b6000602082019050612457600083018461219e565b92915050565b6000819050602082019050919050565b600081519050919050565b600081519050919050565b6000602082019050919050565b600082825260208201905092915050565b600082825260208201905092915050565b60006124bd82612605565b91506124c883612605565b9250827fffffffffffffffffffffffffffffffffffffffffffffffffffffffffffffffff038211156124fd576124fc6126ca565b5b828201905092915050565b600061251382612605565b915061251e83612605565b92508261252e5761252d6126f9565b5b828204905092915050565b600061254482612605565b915061254f83612605565b9250817fffffffffffffffffffffffffffffffffffffffffffffffffffffffffffffffff0483118215151615612588576125876126ca565b5b828202905092915050565b600061259e82612605565b91506125a983612605565b9250828210156125bc576125bb6126ca565b5b828203905092915050565b60006125d2826125e5565b9050919050565b60008115159050919050565b600073ffffffffffffffffffffffffffffffffffffffff82169050919050565b6000819050919050565b600060ff82169050919050565b60005b8381101561263a57808201518184015260208101905061261f565b83811115612649576000848401525b50505050565b6000600282049050600182168061266757607f821691505b6020821081141561267b5761267a612728565b5b50919050565b600061268c82612605565b91507fffffffffffffffffffffffffffffffffffffffffffffffffffffffffffffffff8214156126bf576126be6126ca565b5b600182019050919050565b7f4e487b7100000000000000000000000000000000000000000000000000000000600052601160045260246000fd5b7f4e487b7100000000000000000000000000000000000000000000000000000000600052601260045260246000fd5b7f4e487b7100000000000000000000000000000000000000000000000000000000600052602260045260246000fd5b6000601f19601f8301169050919050565b7f45524332303a207472616e7366657220746f20746865207a65726f206164647260008201527f6573730000000000000000000000000000000000000000000000000000000000602082015250565b7f457863656564696e6720616d6f756e74206f6620746f6b656e73000000000000600082015250565b7f45524332303a206275726e20616d6f756e7420657863656564732062616c616e60008201527f6365000000000000000000000000000000000000000000000000000000000000602082015250565b7f45524332303a20617070726f766520746f20746865207a65726f20616464726560008201527f7373000000000000000000000000000000000000000000000000000000000000602082015250565b7f45524332303a20696e73756666696369656e7420616c6c6f77616e6365000000600082015250565b7f45524332303a207472616e7366657220616d6f756e742065786365656473206260008201527f616c616e63650000000000000000000000000000000000000000000000000000602082015250565b7f476f7665726e6d656e7420646f6573206e6f74206f776e20616c6c20746f6b6560008201527f6e73000000000000000000000000000000000000000000000000000000000000602082015250565b7f496e73756666696369656e742066756e64730000000000000000000000000000600082015250565b7f596f7520646f6e2774206f776e2074686520746f6b656e732079657400000000600082015250565b7f45524332303a206275726e2066726f6d20746865207a65726f2061646472657360008201527f7300000000000000000000000000000000000000000000000000000000000000602082015250565b7f45524332303a207472616e736665722066726f6d20746865207a65726f20616460008201527f6472657373000000000000000000000000000000000000000000000000000000602082015250565b7f4e6f74206f6e2073616c65000000000000000000000000000000000000000000600082015250565b7f416c6c20636c61696d732068617665206265656e20636c61696d65642e20596f60008201527f752063616e206f6e6c79207472616e736665722066726f6d206e6f77206f6e00602082015250565b7f45524332303a20617070726f76652066726f6d20746865207a65726f2061646460008201527f7265737300000000000000000000000000000000000000000000000000000000602082015250565b7f45524332303a2064656372656173656420616c6c6f77616e63652062656c6f7760008201527f207a65726f000000000000000000000000000000000000000000000000000000602082015250565b7f45524332303a206d696e7420746f20746865207a65726f206164647265737300600082015250565b612b7d816125c7565b8114612b8857600080fd5b50565b612b9481612605565b8114612b9f57600080fd5b5056fea26469706673582212201e045218383aba5562f7fe9d135b1a3548ea1acc436145d1d24ae25b1345bea464736f6c63430008040033a26469706673582212201ae7c310db6cbe4c5351ee2affba1e1c32c50be9003faca10e82b924b6ff6ee764736f6c63430008040033",
  "linkReferences": {},
  "deployedLinkReferences": {}
}