{
  "_format": "hh-sol-artifact-1",
  "contractName": "Property",
  "sourceName": "contracts/Property.sol",
  "abi": [
    {
      "inputs": [],
      "stateMutability": "nonpayable",
      "type": "constructor"
    },
    {
      "anonymous": false,
      "inputs": [
        {
          "indexed": true,
          "internalType": "address",
          "name": "owner",
          "type": "address"
        },
        {
          "indexed": true,
          "internalType": "address",
          "name": "approved",
          "type": "address"
        },
        {
          "indexed": true,
          "internalType": "uint256",
          "name": "tokenId",
          "type": "uint256"
        }
      ],
      "name": "Approval",
      "type": "event"
    },
    {
      "anonymous": false,
      "inputs": [
        {
          "indexed": true,
          "internalType": "address",
          "name": "owner",
          "type": "address"
        },
        {
          "indexed": true,
          "internalType": "address",
          "name": "operator",
          "type": "address"
        },
        {
          "indexed": false,
          "internalType": "bool",
          "name": "approved",
          "type": "bool"
        }
      ],
      "name": "ApprovalForAll",
      "type": "event"
    },
    {
      "anonymous": false,
      "inputs": [
        {
          "indexed": true,
          "internalType": "address",
          "name": "from",
          "type": "address"
        },
        {
          "indexed": true,
          "internalType": "address",
          "name": "to",
          "type": "address"
        },
        {
          "indexed": true,
          "internalType": "uint256",
          "name": "tokenId",
          "type": "uint256"
        }
      ],
      "name": "Transfer",
      "type": "event"
    },
    {
      "inputs": [
        {
          "internalType": "address",
          "name": "to",
          "type": "address"
        },
        {
          "internalType": "uint256",
          "name": "tokenId",
          "type": "uint256"
        }
      ],
      "name": "approve",
      "outputs": [],
      "stateMutability": "nonpayable",
      "type": "function"
    },
    {
      "inputs": [
        {
          "internalType": "address",
          "name": "owner",
          "type": "address"
        }
      ],
      "name": "balanceOf",
      "outputs": [
        {
          "internalType": "uint256",
          "name": "",
          "type": "uint256"
        }
      ],
      "stateMutability": "view",
      "type": "function"
    },
    {
      "inputs": [
        {
          "internalType": "string",
          "name": "_uri",
          "type": "string"
        },
        {
          "internalType": "string",
          "name": "_rip",
          "type": "string"
        }
      ],
      "name": "createProperty",
      "outputs": [],
      "stateMutability": "nonpayable",
      "type": "function"
    },
    {
      "inputs": [
        {
          "internalType": "uint256",
          "name": "_idProperty",
          "type": "uint256"
        },
        {
          "internalType": "string",
          "name": "_name",
          "type": "string"
        },
        {
          "internalType": "string",
          "name": "_symbol",
          "type": "string"
        },
        {
          "internalType": "uint256",
          "name": "_area",
          "type": "uint256"
        }
      ],
      "name": "createTokens",
      "outputs": [],
      "stateMutability": "nonpayable",
      "type": "function"
    },
    {
      "inputs": [
        {
          "internalType": "uint256",
          "name": "tokenId",
          "type": "uint256"
        }
      ],
      "name": "getApproved",
      "outputs": [
        {
          "internalType": "address",
          "name": "",
          "type": "address"
        }
      ],
      "stateMutability": "view",
      "type": "function"
    },
    {
      "inputs": [
        {
          "internalType": "string",
          "name": "rip",
          "type": "string"
        }
      ],
      "name": "getTokenURIByRIP",
      "outputs": [
        {
          "internalType": "string",
          "name": "",
          "type": "string"
        }
      ],
      "stateMutability": "view",
      "type": "function"
    },
    {
      "inputs": [],
      "name": "getTokenURIs",
      "outputs": [
        {
          "internalType": "string[]",
          "name": "",
          "type": "string[]"
        }
      ],
      "stateMutability": "view",
      "type": "function"
    },
    {
      "inputs": [
        {
          "internalType": "address",
          "name": "owner",
          "type": "address"
        },
        {
          "internalType": "address",
          "name": "operator",
          "type": "address"
        }
      ],
      "name": "isApprovedForAll",
      "outputs": [
        {
          "internalType": "bool",
          "name": "",
          "type": "bool"
        }
      ],
      "stateMutability": "view",
      "type": "function"
    },
    {
      "inputs": [],
      "name": "name",
      "outputs": [
        {
          "internalType": "string",
          "name": "",
          "type": "string"
        }
      ],
      "stateMutability": "view",
      "type": "function"
    },
    {
      "inputs": [],
      "name": "owner",
      "outputs": [
        {
          "internalType": "address",
          "name": "",
          "type": "address"
        }
      ],
      "stateMutability": "view",
      "type": "function"
    },
    {
      "inputs": [
        {
          "internalType": "uint256",
          "name": "tokenId",
          "type": "uint256"
        }
      ],
      "name": "ownerOf",
      "outputs": [
        {
          "internalType": "address",
          "name": "",
          "type": "address"
        }
      ],
      "stateMutability": "view",
      "type": "function"
    },
    {
      "inputs": [
        {
          "internalType": "uint256",
          "name": "",
          "type": "uint256"
        }
      ],
      "name": "propetiesERC20",
      "outputs": [
        {
          "internalType": "address",
          "name": "",
          "type": "address"
        }
      ],
      "stateMutability": "view",
      "type": "function"
    },
    {
      "inputs": [
        {
          "internalType": "address",
          "name": "from",
          "type": "address"
        },
        {
          "internalType": "address",
          "name": "to",
          "type": "address"
        },
        {
          "internalType": "uint256",
          "name": "tokenId",
          "type": "uint256"
        }
      ],
      "name": "safeTransferFrom",
      "outputs": [],
      "stateMutability": "nonpayable",
      "type": "function"
    },
    {
      "inputs": [
        {
          "internalType": "address",
          "name": "from",
          "type": "address"
        },
        {
          "internalType": "address",
          "name": "to",
          "type": "address"
        },
        {
          "internalType": "uint256",
          "name": "tokenId",
          "type": "uint256"
        },
        {
          "internalType": "bytes",
          "name": "data",
          "type": "bytes"
        }
      ],
      "name": "safeTransferFrom",
      "outputs": [],
      "stateMutability": "nonpayable",
      "type": "function"
    },
    {
      "inputs": [
        {
          "internalType": "address",
          "name": "operator",
          "type": "address"
        },
        {
          "internalType": "bool",
          "name": "approved",
          "type": "bool"
        }
      ],
      "name": "setApprovalForAll",
      "outputs": [],
      "stateMutability": "nonpayable",
      "type": "function"
    },
    {
      "inputs": [
        {
          "internalType": "bytes4",
          "name": "interfaceId",
          "type": "bytes4"
        }
      ],
      "name": "supportsInterface",
      "outputs": [
        {
          "internalType": "bool",
          "name": "",
          "type": "bool"
        }
      ],
      "stateMutability": "view",
      "type": "function"
    },
    {
      "inputs": [],
      "name": "symbol",
      "outputs": [
        {
          "internalType": "string",
          "name": "",
          "type": "string"
        }
      ],
      "stateMutability": "view",
      "type": "function"
    },
    {
      "inputs": [
        {
          "internalType": "uint256",
          "name": "_id",
          "type": "uint256"
        }
      ],
      "name": "tokenURI",
      "outputs": [
        {
          "internalType": "string",
          "name": "",
          "type": "string"
        }
      ],
      "stateMutability": "view",
      "type": "function"
    },
    {
      "inputs": [
        {
          "internalType": "string",
          "name": "",
          "type": "string"
        }
      ],
      "name": "tokenURIByRIP",
      "outputs": [
        {
          "internalType": "string",
          "name": "",
          "type": "string"
        }
      ],
      "stateMutability": "view",
      "type": "function"
    },
    {
      "inputs": [
        {
          "internalType": "uint256",
          "name": "",
          "type": "uint256"
        }
      ],
      "name": "tokenURIs",
      "outputs": [
        {
          "internalType": "string",
          "name": "",
          "type": "string"
        }
      ],
      "stateMutability": "view",
      "type": "function"
    },
    {
      "inputs": [
        {
          "internalType": "address",
          "name": "from",
          "type": "address"
        },
        {
          "internalType": "address",
          "name": "to",
          "type": "address"
        },
        {
          "internalType": "uint256",
          "name": "tokenId",
          "type": "uint256"
        }
      ],
      "name": "transferFrom",
      "outputs": [],
      "stateMutability": "nonpayable",
      "type": "function"
    }
  ],
  "bytecode": "0x60806040523480156200001157600080fd5b506040518060400160405280601281526020017f5265616c45737461746550726f706572747900000000000000000000000000008152506040518060400160405280600381526020017f5245500000000000000000000000000000000000000000000000000000000000815250816000908051906020019062000096929190620000f9565b508060019080519060200190620000af929190620000f9565b50505033600660006101000a81548173ffffffffffffffffffffffffffffffffffffffff021916908373ffffffffffffffffffffffffffffffffffffffff1602179055506200020e565b8280546200010790620001a9565b90600052602060002090601f0160209004810192826200012b576000855562000177565b82601f106200014657805160ff191683800117855562000177565b8280016001018555821562000177579182015b828111156200017657825182559160200191906001019062000159565b5b5090506200018691906200018a565b5090565b5b80821115620001a55760008160009055506001016200018b565b5090565b60006002820490506001821680620001c257607f821691505b60208210811415620001d957620001d8620001df565b5b50919050565b7f4e487b7100000000000000000000000000000000000000000000000000000000600052602260045260246000fd5b61625f806200021e6000396000f3fe60806040523480156200001157600080fd5b5060043610620001545760003560e01c806370a0823111620000c9578063aead1d991162000087578063aead1d9914620003d9578063b6d3564b146200040f578063b88d4fde1462000431578063c87b56dd1462000451578063e985e9c51462000487578063f42e77a414620004bd5762000154565b806370a0823114620003095780638da5cb5b146200033f57806395d89b411462000361578063a22cb4651462000383578063a8ba198d14620003a35762000154565b806323b872dd116200011757806323b872dd146200022757806324fdeb22146200024757806342842e0e146200027d5780636352211e146200029d5780636c8b703f14620002d35762000154565b806301ffc9a7146200015957806306fdde03146200018f57806307460b6614620001b1578063081812fc14620001d1578063095ea7b31462000207575b600080fd5b62000177600480360381019062000171919062002288565b620004dd565b60405162000186919062002881565b60405180910390f35b62000199620005c3565b604051620001a891906200289e565b60405180910390f35b620001cf6004803603810190620001c9919062002325565b6200065d565b005b620001ef6004803603810190620001e9919062002398565b6200069c565b604051620001fe9190620027ec565b60405180910390f35b6200022560048036038101906200021f919062002247565b620006e4565b005b6200024560048036038101906200023f91906200212b565b6200080d565b005b6200026560048036038101906200025f9190620022e0565b62000876565b6040516200027491906200289e565b60405180910390f35b6200029b60048036038101906200029591906200212b565b62000934565b005b620002bb6004803603810190620002b5919062002398565b62000956565b604051620002ca9190620027ec565b60405180910390f35b620002f16004803603810190620002eb919062002398565b620009e2565b6040516200030091906200289e565b60405180910390f35b620003276004803603810190620003219190620020be565b62000a8a565b60405162000336919062002a93565b60405180910390f35b6200034962000b45565b604051620003589190620027ec565b60405180910390f35b6200036b62000b6b565b6040516200037a91906200289e565b60405180910390f35b620003a160048036038101906200039b919062002206565b62000c05565b005b620003c16004803603810190620003bb919062002398565b62000c1f565b604051620003d09190620027ec565b60405180910390f35b620003f76004803603810190620003f19190620022e0565b62000c52565b6040516200040691906200289e565b60405180910390f35b6200041962000d0c565b6040516200042891906200285d565b60405180910390f35b6200044f600480360381019062000449919062002181565b62000eb2565b005b6200046f600480360381019062000469919062002398565b62000f1d565b6040516200047e91906200289e565b60405180910390f35b620004a560048036038101906200049f9190620020ea565b62000fca565b604051620004b4919062002881565b60405180910390f35b620004db6004803603810190620004d59190620023c4565b6200105e565b005b60007f80ac58cd000000000000000000000000000000000000000000000000000000007bffffffffffffffffffffffffffffffffffffffffffffffffffffffff1916827bffffffffffffffffffffffffffffffffffffffffffffffffffffffff19161480620005a957507f5b5e139f000000000000000000000000000000000000000000000000000000007bffffffffffffffffffffffffffffffffffffffffffffffffffffffff1916827bffffffffffffffffffffffffffffffffffffffffffffffffffffffff1916145b80620005bc5750620005bb8262001177565b5b9050919050565b606060008054620005d49062002d25565b80601f0160208091040260200160405190810160405280929190818152602001828054620006029062002d25565b8015620006535780601f10620006275761010080835404028352916020019162000653565b820191906000526020600020905b8154815290600101906020018083116200063557829003601f168201915b5050505050905090565b62000674336200066e600a620011e1565b620011ef565b6200068c62000684600a620011e1565b83836200141e565b62000698600a62001484565b5050565b6000620006a9826200149a565b6004600083815260200190815260200160002060009054906101000a900473ffffffffffffffffffffffffffffffffffffffff169050919050565b6000620006f18262000956565b90508073ffffffffffffffffffffffffffffffffffffffff168373ffffffffffffffffffffffffffffffffffffffff16141562000765576040517f08c379a00000000000000000000000000000000000000000000000000000000081526004016200075c9062002a4f565b60405180910390fd5b8073ffffffffffffffffffffffffffffffffffffffff1662000786620014ea565b73ffffffffffffffffffffffffffffffffffffffff161480620007ba5750620007b981620007b3620014ea565b62000fca565b5b620007fc576040517f08c379a0000000000000000000000000000000000000000000000000000000008152600401620007f39062002a71565b60405180910390fd5b620008088383620014f2565b505050565b620008226200081b620014ea565b82620015ad565b62000864576040517f08c379a00000000000000000000000000000000000000000000000000000000081526004016200085b906200291d565b60405180910390fd5b620008718383836200164a565b505050565b6009818051602081018201805184825260208301602085012081835280955050505050506000915090508054620008ad9062002d25565b80601f0160208091040260200160405190810160405280929190818152602001828054620008db9062002d25565b80156200092c5780601f1062000900576101008083540402835291602001916200092c565b820191906000526020600020905b8154815290600101906020018083116200090e57829003601f168201915b505050505081565b620009518383836040518060200160405280600081525062000eb2565b505050565b600080620009648362001955565b9050600073ffffffffffffffffffffffffffffffffffffffff168173ffffffffffffffffffffffffffffffffffffffff161415620009d9576040517f08c379a0000000000000000000000000000000000000000000000000000000008152600401620009d09062002a2d565b60405180910390fd5b80915050919050565b6008602052806000526040600020600091509050805462000a039062002d25565b80601f016020809104026020016040519081016040528092919081815260200182805462000a319062002d25565b801562000a825780601f1062000a565761010080835404028352916020019162000a82565b820191906000526020600020905b81548152906001019060200180831162000a6457829003601f168201915b505050505081565b60008073ffffffffffffffffffffffffffffffffffffffff168273ffffffffffffffffffffffffffffffffffffffff16141562000afe576040517f08c379a000000000000000000000000000000000000000000000000000000000815260040162000af590620029e9565b60405180910390fd5b600360008373ffffffffffffffffffffffffffffffffffffffff1673ffffffffffffffffffffffffffffffffffffffff168152602001908152602001600020549050919050565b600660009054906101000a900473ffffffffffffffffffffffffffffffffffffffff1681565b60606001805462000b7c9062002d25565b80601f016020809104026020016040519081016040528092919081815260200182805462000baa9062002d25565b801562000bfb5780601f1062000bcf5761010080835404028352916020019162000bfb565b820191906000526020600020905b81548152906001019060200180831162000bdd57829003601f168201915b5050505050905090565b62000c1b62000c13620014ea565b838362001992565b5050565b60076020528060005260406000206000915054906101000a900473ffffffffffffffffffffffffffffffffffffffff1681565b606060098260405162000c669190620027d3565b9081526020016040518091039020805462000c819062002d25565b80601f016020809104026020016040519081016040528092919081815260200182805462000caf9062002d25565b801562000d005780601f1062000cd45761010080835404028352916020019162000d00565b820191906000526020600020905b81548152906001019060200180831162000ce257829003601f168201915b50505050509050919050565b6060600062000d1c600a620011e1565b67ffffffffffffffff81111562000d5c577f4e487b7100000000000000000000000000000000000000000000000000000000600052604160045260246000fd5b60405190808252806020026020018201604052801562000d9157816020015b606081526020019060019003908162000d7b5790505b50905060005b62000da3600a620011e1565b81101562000eaa5760086000828152602001908152602001600020805462000dcb9062002d25565b80601f016020809104026020016040519081016040528092919081815260200182805462000df99062002d25565b801562000e4a5780601f1062000e1e5761010080835404028352916020019162000e4a565b820191906000526020600020905b81548152906001019060200180831162000e2c57829003601f168201915b505050505082828151811062000e89577f4e487b7100000000000000000000000000000000000000000000000000000000600052603260045260246000fd5b6020026020010181905250808062000ea19062002d91565b91505062000d97565b508091505090565b62000ec762000ec0620014ea565b83620015ad565b62000f09576040517f08c379a000000000000000000000000000000000000000000000000000000000815260040162000f00906200291d565b60405180910390fd5b62000f178484848462001b04565b50505050565b606060086000838152602001908152602001600020805462000f3f9062002d25565b80601f016020809104026020016040519081016040528092919081815260200182805462000f6d9062002d25565b801562000fbe5780601f1062000f925761010080835404028352916020019162000fbe565b820191906000526020600020905b81548152906001019060200180831162000fa057829003601f168201915b50505050509050919050565b6000600560008473ffffffffffffffffffffffffffffffffffffffff1673ffffffffffffffffffffffffffffffffffffffff16815260200190815260200160002060008373ffffffffffffffffffffffffffffffffffffffff1673ffffffffffffffffffffffffffffffffffffffff16815260200190815260200160002060009054906101000a900460ff16905092915050565b600660009054906101000a900473ffffffffffffffffffffffffffffffffffffffff1673ffffffffffffffffffffffffffffffffffffffff163373ffffffffffffffffffffffffffffffffffffffff1614620010b957600080fd5b60008383600660009054906101000a900473ffffffffffffffffffffffffffffffffffffffff1684604051620010ef9062001ea9565b620010fe9493929190620028c2565b604051809103906000f0801580156200111b573d6000803e3d6000fd5b509050806007600087815260200190815260200160002060006101000a81548173ffffffffffffffffffffffffffffffffffffffff021916908373ffffffffffffffffffffffffffffffffffffffff1602179055505050505050565b60007f01ffc9a7000000000000000000000000000000000000000000000000000000007bffffffffffffffffffffffffffffffffffffffffffffffffffffffff1916827bffffffffffffffffffffffffffffffffffffffffffffffffffffffff1916149050919050565b600081600001549050919050565b600073ffffffffffffffffffffffffffffffffffffffff168273ffffffffffffffffffffffffffffffffffffffff16141562001262576040517f08c379a0000000000000000000000000000000000000000000000000000000008152600401620012599062002a0b565b60405180910390fd5b6200126d8162001b67565b15620012b0576040517f08c379a0000000000000000000000000000000000000000000000000000000008152600401620012a79062002983565b60405180910390fd5b620012c060008383600162001baa565b620012cb8162001b67565b156200130e576040517f08c379a0000000000000000000000000000000000000000000000000000000008152600401620013059062002983565b60405180910390fd5b6001600360008473ffffffffffffffffffffffffffffffffffffffff1673ffffffffffffffffffffffffffffffffffffffff16815260200190815260200160002060008282540192505081905550816002600083815260200190815260200160002060006101000a81548173ffffffffffffffffffffffffffffffffffffffff021916908373ffffffffffffffffffffffffffffffffffffffff160217905550808273ffffffffffffffffffffffffffffffffffffffff16600073ffffffffffffffffffffffffffffffffffffffff167fddf252ad1be2c89b69c2b068fc378daa952ba7f163c4a11628f55a4df523b3ef60405160405180910390a46200141a60008383600162001cd7565b5050565b816008600085815260200190815260200160002090805190602001906200144792919062001eb7565b50816009826040516200145b9190620027d3565b908152602001604051809103902090805190602001906200147e92919062001eb7565b50505050565b6001816000016000828254019250508190555050565b620014a58162001b67565b620014e7576040517f08c379a0000000000000000000000000000000000000000000000000000000008152600401620014de9062002a2d565b60405180910390fd5b50565b600033905090565b816004600083815260200190815260200160002060006101000a81548173ffffffffffffffffffffffffffffffffffffffff021916908373ffffffffffffffffffffffffffffffffffffffff160217905550808273ffffffffffffffffffffffffffffffffffffffff16620015678362000956565b73ffffffffffffffffffffffffffffffffffffffff167f8c5be1e5ebec7d5bd14f71427d1e84f3dd0314c0f7b2291e5b200ac8c7c3b92560405160405180910390a45050565b600080620015bb8362000956565b90508073ffffffffffffffffffffffffffffffffffffffff168473ffffffffffffffffffffffffffffffffffffffff161480620016005750620015ff818562000fca565b5b806200164157508373ffffffffffffffffffffffffffffffffffffffff1662001629846200069c565b73ffffffffffffffffffffffffffffffffffffffff16145b91505092915050565b8273ffffffffffffffffffffffffffffffffffffffff166200166c8262000956565b73ffffffffffffffffffffffffffffffffffffffff1614620016c5576040517f08c379a0000000000000000000000000000000000000000000000000000000008152600401620016bc9062002961565b60405180910390fd5b600073ffffffffffffffffffffffffffffffffffffffff168273ffffffffffffffffffffffffffffffffffffffff16141562001738576040517f08c379a00000000000000000000000000000000000000000000000000000000081526004016200172f90620029a5565b60405180910390fd5b62001747838383600162001baa565b8273ffffffffffffffffffffffffffffffffffffffff16620017698262000956565b73ffffffffffffffffffffffffffffffffffffffff1614620017c2576040517f08c379a0000000000000000000000000000000000000000000000000000000008152600401620017b99062002961565b60405180910390fd5b6004600082815260200190815260200160002060006101000a81549073ffffffffffffffffffffffffffffffffffffffff02191690556001600360008573ffffffffffffffffffffffffffffffffffffffff1673ffffffffffffffffffffffffffffffffffffffff168152602001908152602001600020600082825403925050819055506001600360008473ffffffffffffffffffffffffffffffffffffffff1673ffffffffffffffffffffffffffffffffffffffff16815260200190815260200160002060008282540192505081905550816002600083815260200190815260200160002060006101000a81548173ffffffffffffffffffffffffffffffffffffffff021916908373ffffffffffffffffffffffffffffffffffffffff160217905550808273ffffffffffffffffffffffffffffffffffffffff168473ffffffffffffffffffffffffffffffffffffffff167fddf252ad1be2c89b69c2b068fc378daa952ba7f163c4a11628f55a4df523b3ef60405160405180910390a462001950838383600162001cd7565b505050565b60006002600083815260200190815260200160002060009054906101000a900473ffffffffffffffffffffffffffffffffffffffff169050919050565b8173ffffffffffffffffffffffffffffffffffffffff168373ffffffffffffffffffffffffffffffffffffffff16141562001a04576040517f08c379a0000000000000000000000000000000000000000000000000000000008152600401620019fb90620029c7565b60405180910390fd5b80600560008573ffffffffffffffffffffffffffffffffffffffff1673ffffffffffffffffffffffffffffffffffffffff16815260200190815260200160002060008473ffffffffffffffffffffffffffffffffffffffff1673ffffffffffffffffffffffffffffffffffffffff16815260200190815260200160002060006101000a81548160ff0219169083151502179055508173ffffffffffffffffffffffffffffffffffffffff168373ffffffffffffffffffffffffffffffffffffffff167f17307eab39ab6107e8899845ad3d59bd9653f200f220920489ca2b5937696c318360405162001af7919062002881565b60405180910390a3505050565b62001b118484846200164a565b62001b1f8484848462001cdd565b62001b61576040517f08c379a000000000000000000000000000000000000000000000000000000000815260040162001b58906200293f565b60405180910390fd5b50505050565b60008073ffffffffffffffffffffffffffffffffffffffff1662001b8b8362001955565b73ffffffffffffffffffffffffffffffffffffffff1614159050919050565b600181111562001cd157600073ffffffffffffffffffffffffffffffffffffffff168473ffffffffffffffffffffffffffffffffffffffff161462001c425780600360008673ffffffffffffffffffffffffffffffffffffffff1673ffffffffffffffffffffffffffffffffffffffff168152602001908152602001600020600082825462001c3a919062002c2f565b925050819055505b600073ffffffffffffffffffffffffffffffffffffffff168373ffffffffffffffffffffffffffffffffffffffff161462001cd05780600360008573ffffffffffffffffffffffffffffffffffffffff1673ffffffffffffffffffffffffffffffffffffffff168152602001908152602001600020600082825462001cc8919062002bd2565b925050819055505b5b50505050565b50505050565b600062001d008473ffffffffffffffffffffffffffffffffffffffff1662001e86565b1562001e79578373ffffffffffffffffffffffffffffffffffffffff1663150b7a0262001d2c620014ea565b8786866040518563ffffffff1660e01b815260040162001d50949392919062002809565b602060405180830381600087803b15801562001d6b57600080fd5b505af192505050801562001d9f57506040513d601f19601f8201168201806040525081019062001d9c9190620022b4565b60015b62001e28573d806000811462001dd2576040519150601f19603f3d011682016040523d82523d6000602084013e62001dd7565b606091505b5060008151141562001e20576040517f08c379a000000000000000000000000000000000000000000000000000000000815260040162001e17906200293f565b60405180910390fd5b805181602001fd5b63150b7a0260e01b7bffffffffffffffffffffffffffffffffffffffffffffffffffffffff1916817bffffffffffffffffffffffffffffffffffffffffffffffffffffffff19161491505062001e7e565b600190505b949350505050565b6000808273ffffffffffffffffffffffffffffffffffffffff163b119050919050565b61307780620031b383390190565b82805462001ec59062002d25565b90600052602060002090601f01602090048101928262001ee9576000855562001f35565b82601f1062001f0457805160ff191683800117855562001f35565b8280016001018555821562001f35579182015b8281111562001f3457825182559160200191906001019062001f17565b5b50905062001f44919062001f48565b5090565b5b8082111562001f6357600081600090555060010162001f49565b5090565b600062001f7e62001f788462002ad9565b62002ab0565b90508281526020810184848401111562001f9757600080fd5b62001fa484828562002ce0565b509392505050565b600062001fc362001fbd8462002b0f565b62002ab0565b90508281526020810184848401111562001fdc57600080fd5b62001fe984828562002ce0565b509392505050565b60008135905062002002816200314a565b92915050565b600081359050620020198162003164565b92915050565b60008135905062002030816200317e565b92915050565b60008151905062002047816200317e565b92915050565b600082601f8301126200205f57600080fd5b81356200207184826020860162001f67565b91505092915050565b600082601f8301126200208c57600080fd5b81356200209e84826020860162001fac565b91505092915050565b600081359050620020b88162003198565b92915050565b600060208284031215620020d157600080fd5b6000620020e18482850162001ff1565b91505092915050565b60008060408385031215620020fe57600080fd5b60006200210e8582860162001ff1565b9250506020620021218582860162001ff1565b9150509250929050565b6000806000606084860312156200214157600080fd5b6000620021518682870162001ff1565b9350506020620021648682870162001ff1565b92505060406200217786828701620020a7565b9150509250925092565b600080600080608085870312156200219857600080fd5b6000620021a88782880162001ff1565b9450506020620021bb8782880162001ff1565b9350506040620021ce87828801620020a7565b925050606085013567ffffffffffffffff811115620021ec57600080fd5b620021fa878288016200204d565b91505092959194509250565b600080604083850312156200221a57600080fd5b60006200222a8582860162001ff1565b92505060206200223d8582860162002008565b9150509250929050565b600080604083850312156200225b57600080fd5b60006200226b8582860162001ff1565b92505060206200227e85828601620020a7565b9150509250929050565b6000602082840312156200229b57600080fd5b6000620022ab848285016200201f565b91505092915050565b600060208284031215620022c757600080fd5b6000620022d78482850162002036565b91505092915050565b600060208284031215620022f357600080fd5b600082013567ffffffffffffffff8111156200230e57600080fd5b6200231c848285016200207a565b91505092915050565b600080604083850312156200233957600080fd5b600083013567ffffffffffffffff8111156200235457600080fd5b62002362858286016200207a565b925050602083013567ffffffffffffffff8111156200238057600080fd5b6200238e858286016200207a565b9150509250929050565b600060208284031215620023ab57600080fd5b6000620023bb84828501620020a7565b91505092915050565b60008060008060808587031215620023db57600080fd5b6000620023eb87828801620020a7565b945050602085013567ffffffffffffffff8111156200240957600080fd5b62002417878288016200207a565b935050604085013567ffffffffffffffff8111156200243557600080fd5b62002443878288016200207a565b92505060606200245687828801620020a7565b91505092959194509250565b60006200247083836200255c565b905092915050565b620024838162002c6a565b82525050565b6000620024968262002b55565b620024a2818562002b83565b935083602082028501620024b68562002b45565b8060005b85811015620024f85784840389528151620024d6858262002462565b9450620024e38362002b76565b925060208a01995050600181019050620024ba565b50829750879550505050505092915050565b620025158162002c7e565b82525050565b6000620025288262002b60565b62002534818562002b94565b93506200254681856020860162002cef565b620025518162002e6c565b840191505092915050565b6000620025698262002b6b565b62002575818562002ba5565b93506200258781856020860162002cef565b620025928162002e6c565b840191505092915050565b6000620025aa8262002b6b565b620025b6818562002bb6565b9350620025c881856020860162002cef565b620025d38162002e6c565b840191505092915050565b6000620025eb8262002b6b565b620025f7818562002bc7565b93506200260981856020860162002cef565b80840191505092915050565b600062002624602d8362002bb6565b9150620026318262002e7d565b604082019050919050565b60006200264b60328362002bb6565b9150620026588262002ecc565b604082019050919050565b60006200267260258362002bb6565b91506200267f8262002f1b565b604082019050919050565b600062002699601c8362002bb6565b9150620026a68262002f6a565b602082019050919050565b6000620026c060248362002bb6565b9150620026cd8262002f93565b604082019050919050565b6000620026e760198362002bb6565b9150620026f48262002fe2565b602082019050919050565b60006200270e60298362002bb6565b91506200271b826200300b565b604082019050919050565b60006200273560208362002bb6565b915062002742826200305a565b602082019050919050565b60006200275c60188362002bb6565b9150620027698262003083565b602082019050919050565b60006200278360218362002bb6565b91506200279082620030ac565b604082019050919050565b6000620027aa603d8362002bb6565b9150620027b782620030fb565b604082019050919050565b620027cd8162002cd6565b82525050565b6000620027e18284620025de565b915081905092915050565b600060208201905062002803600083018462002478565b92915050565b600060808201905062002820600083018762002478565b6200282f602083018662002478565b6200283e6040830185620027c2565b81810360608301526200285281846200251b565b905095945050505050565b6000602082019050818103600083015262002879818462002489565b905092915050565b60006020820190506200289860008301846200250a565b92915050565b60006020820190508181036000830152620028ba81846200259d565b905092915050565b60006080820190508181036000830152620028de81876200259d565b90508181036020830152620028f481866200259d565b905062002905604083018562002478565b620029146060830184620027c2565b95945050505050565b60006020820190508181036000830152620029388162002615565b9050919050565b600060208201905081810360008301526200295a816200263c565b9050919050565b600060208201905081810360008301526200297c8162002663565b9050919050565b600060208201905081810360008301526200299e816200268a565b9050919050565b60006020820190508181036000830152620029c081620026b1565b9050919050565b60006020820190508181036000830152620029e281620026d8565b9050919050565b6000602082019050818103600083015262002a0481620026ff565b9050919050565b6000602082019050818103600083015262002a268162002726565b9050919050565b6000602082019050818103600083015262002a48816200274d565b9050919050565b6000602082019050818103600083015262002a6a8162002774565b9050919050565b6000602082019050818103600083015262002a8c816200279b565b9050919050565b600060208201905062002aaa6000830184620027c2565b92915050565b600062002abc62002acf565b905062002aca828262002d5b565b919050565b6000604051905090565b600067ffffffffffffffff82111562002af75762002af662002e3d565b5b62002b028262002e6c565b9050602081019050919050565b600067ffffffffffffffff82111562002b2d5762002b2c62002e3d565b5b62002b388262002e6c565b9050602081019050919050565b6000819050602082019050919050565b600081519050919050565b600081519050919050565b600081519050919050565b6000602082019050919050565b600082825260208201905092915050565b600082825260208201905092915050565b600082825260208201905092915050565b600082825260208201905092915050565b600081905092915050565b600062002bdf8262002cd6565b915062002bec8362002cd6565b9250827fffffffffffffffffffffffffffffffffffffffffffffffffffffffffffffffff0382111562002c245762002c2362002ddf565b5b828201905092915050565b600062002c3c8262002cd6565b915062002c498362002cd6565b92508282101562002c5f5762002c5e62002ddf565b5b828203905092915050565b600062002c778262002cb6565b9050919050565b60008115159050919050565b60007fffffffff0000000000000000000000000000000000000000000000000000000082169050919050565b600073ffffffffffffffffffffffffffffffffffffffff82169050919050565b6000819050919050565b82818337600083830152505050565b60005b8381101562002d0f57808201518184015260208101905062002cf2565b8381111562002d1f576000848401525b50505050565b6000600282049050600182168062002d3e57607f821691505b6020821081141562002d555762002d5462002e0e565b5b50919050565b62002d668262002e6c565b810181811067ffffffffffffffff8211171562002d885762002d8762002e3d565b5b80604052505050565b600062002d9e8262002cd6565b91507fffffffffffffffffffffffffffffffffffffffffffffffffffffffffffffffff82141562002dd45762002dd362002ddf565b5b600182019050919050565b7f4e487b7100000000000000000000000000000000000000000000000000000000600052601160045260246000fd5b7f4e487b7100000000000000000000000000000000000000000000000000000000600052602260045260246000fd5b7f4e487b7100000000000000000000000000000000000000000000000000000000600052604160045260246000fd5b6000601f19601f8301169050919050565b7f4552433732313a2063616c6c6572206973206e6f7420746f6b656e206f776e6560008201527f72206f7220617070726f76656400000000000000000000000000000000000000602082015250565b7f4552433732313a207472616e7366657220746f206e6f6e20455243373231526560008201527f63656976657220696d706c656d656e7465720000000000000000000000000000602082015250565b7f4552433732313a207472616e736665722066726f6d20696e636f72726563742060008201527f6f776e6572000000000000000000000000000000000000000000000000000000602082015250565b7f4552433732313a20746f6b656e20616c7265616479206d696e74656400000000600082015250565b7f4552433732313a207472616e7366657220746f20746865207a65726f2061646460008201527f7265737300000000000000000000000000000000000000000000000000000000602082015250565b7f4552433732313a20617070726f766520746f2063616c6c657200000000000000600082015250565b7f4552433732313a2061646472657373207a65726f206973206e6f74206120766160008201527f6c6964206f776e65720000000000000000000000000000000000000000000000602082015250565b7f4552433732313a206d696e7420746f20746865207a65726f2061646472657373600082015250565b7f4552433732313a20696e76616c696420746f6b656e2049440000000000000000600082015250565b7f4552433732313a20617070726f76616c20746f2063757272656e74206f776e6560008201527f7200000000000000000000000000000000000000000000000000000000000000602082015250565b7f4552433732313a20617070726f76652063616c6c6572206973206e6f7420746f60008201527f6b656e206f776e6572206f7220617070726f76656420666f7220616c6c000000602082015250565b620031558162002c6a565b81146200316157600080fd5b50565b6200316f8162002c7e565b81146200317b57600080fd5b50565b620031898162002c8a565b81146200319557600080fd5b50565b620031a38162002cd6565b8114620031af57600080fd5b5056fe60806040523480156200001157600080fd5b50604051620030773803806200307783398181016040528101906200003791906200020f565b8383816003908051906020019062000051929190620000bf565b5080600490805190602001906200006a929190620000bf565b50505081600760006101000a81548173ffffffffffffffffffffffffffffffffffffffff021916908373ffffffffffffffffffffffffffffffffffffffff16021790555080600581905550505050506200048f565b828054620000cd9062000380565b90600052602060002090601f016020900481019282620000f157600085556200013d565b82601f106200010c57805160ff19168380011785556200013d565b828001600101855582156200013d579182015b828111156200013c5782518255916020019190600101906200011f565b5b5090506200014c919062000150565b5090565b5b808211156200016b57600081600090555060010162000151565b5090565b6000620001866200018084620002d6565b620002ad565b9050828152602081018484840111156200019f57600080fd5b620001ac8482856200034a565b509392505050565b600081519050620001c5816200045b565b92915050565b600082601f830112620001dd57600080fd5b8151620001ef8482602086016200016f565b91505092915050565b600081519050620002098162000475565b92915050565b600080600080608085870312156200022657600080fd5b600085015167ffffffffffffffff8111156200024157600080fd5b6200024f87828801620001cb565b945050602085015167ffffffffffffffff8111156200026d57600080fd5b6200027b87828801620001cb565b93505060406200028e87828801620001b4565b9250506060620002a187828801620001f8565b91505092959194509250565b6000620002b9620002cc565b9050620002c78282620003b6565b919050565b6000604051905090565b600067ffffffffffffffff821115620002f457620002f36200041b565b5b620002ff826200044a565b9050602081019050919050565b6000620003198262000320565b9050919050565b600073ffffffffffffffffffffffffffffffffffffffff82169050919050565b6000819050919050565b60005b838110156200036a5780820151818401526020810190506200034d565b838111156200037a576000848401525b50505050565b600060028204905060018216806200039957607f821691505b60208210811415620003b057620003af620003ec565b5b50919050565b620003c1826200044a565b810181811067ffffffffffffffff82111715620003e357620003e26200041b565b5b80604052505050565b7f4e487b7100000000000000000000000000000000000000000000000000000000600052602260045260246000fd5b7f4e487b7100000000000000000000000000000000000000000000000000000000600052604160045260246000fd5b6000601f19601f8301169050919050565b62000466816200030c565b81146200047257600080fd5b50565b620004808162000340565b81146200048c57600080fd5b50565b612bd8806200049f6000396000f3fe6080604052600436106101355760003560e01c80637824407f116100ab578063a457c2d71161006f578063a457c2d714610400578063a9059cbb1461043d578063aa8c217c1461047a578063c0e5b611146104a5578063dd62ed3e146104e2578063f8a14f461461051f57610135565b80637824407f1461032b5780638da5cb5b1461035657806395d89b411461038157806398d29b35146103ac578063a0e67e2b146103d557610135565b8063313ce567116100fd578063313ce5671461023557806339509351146102605780633fa4f2451461029d57806348c54b9d146102c857806368f8fc10146102d257806370a08231146102ee57610135565b806306fdde031461013a57806308003f7814610165578063095ea7b31461019057806318160ddd146101cd57806323b872dd146101f8575b600080fd5b34801561014657600080fd5b5061014f61055c565b60405161015c9190612205565b60405180910390f35b34801561017157600080fd5b5061017a6105ee565b60405161018791906121ea565b60405180910390f35b34801561019c57600080fd5b506101b760048036038101906101b29190611dcf565b6106b7565b6040516101c491906121ea565b60405180910390f35b3480156101d957600080fd5b506101e26106da565b6040516101ef9190612427565b60405180910390f35b34801561020457600080fd5b5061021f600480360381019061021a9190611d80565b6106e4565b60405161022c91906121ea565b60405180910390f35b34801561024157600080fd5b5061024a610713565b6040516102579190612442565b60405180910390f35b34801561026c57600080fd5b5061028760048036038101906102829190611dcf565b61071c565b60405161029491906121ea565b60405180910390f35b3480156102a957600080fd5b506102b2610753565b6040516102bf9190612427565b60405180910390f35b6102d0610759565b005b6102ec60048036038101906102e79190611dcf565b6108d7565b005b3480156102fa57600080fd5b5061031560048036038101906103109190611d1b565b610a12565b6040516103229190612427565b60405180910390f35b34801561033757600080fd5b50610340610a5a565b60405161034d9190612427565b60405180910390f35b34801561036257600080fd5b5061036b610a60565b60405161037891906121ad565b60405180910390f35b34801561038d57600080fd5b50610396610a86565b6040516103a39190612205565b60405180910390f35b3480156103b857600080fd5b506103d360048036038101906103ce9190611d44565b610b18565b005b3480156103e157600080fd5b506103ea610e49565b6040516103f791906121c8565b60405180910390f35b34801561040c57600080fd5b5061042760048036038101906104229190611dcf565b610ed7565b60405161043491906121ea565b60405180910390f35b34801561044957600080fd5b50610464600480360381019061045f9190611dcf565b610f4e565b60405161047191906121ea565b60405180910390f35b34801561048657600080fd5b5061048f610f71565b60405161049c9190612427565b60405180910390f35b3480156104b157600080fd5b506104cc60048036038101906104c79190611e0b565b610f77565b6040516104d991906121ea565b60405180910390f35b3480156104ee57600080fd5b5061050960048036038101906105049190611d44565b610fd3565b6040516105169190612427565b60405180910390f35b34801561052b57600080fd5b5061054660048036038101906105419190611e5a565b61105a565b60405161055391906121ad565b60405180910390f35b60606003805461056b9061264f565b80601f01602080910402602001604051908101604052809291908181526020018280546105979061264f565b80156105e45780601f106105b9576101008083540402835291602001916105e4565b820191906000526020600020905b8154815290600101906020018083116105c757829003601f168201915b5050505050905090565b6000600760009054906101000a900473ffffffffffffffffffffffffffffffffffffffff1673ffffffffffffffffffffffffffffffffffffffff163373ffffffffffffffffffffffffffffffffffffffff161461064a57600080fd5b60085461065d610658611099565b610a12565b1461069d576040517f08c379a0000000000000000000000000000000000000000000000000000000008152600401610694906122e7565b60405180910390fd5b6106b06106a8611099565b6008546110a1565b6001905090565b6000806106c2611099565b90506106cf81858561126f565b600191505092915050565b6000600254905090565b6000806106ef611099565b90506106fc85828561143a565b6107078585856114c6565b60019150509392505050565b60006012905090565b600080610727611099565b90506107488185856107398589610fd3565b61074391906124b2565b61126f565b600191505092915050565b60065481565b6005546008541061079f576040517f08c379a0000000000000000000000000000000000000000000000000000000008152600401610796906123a7565b60405180910390fd5b6006543410156107e4576040517f08c379a00000000000000000000000000000000000000000000000000000000081526004016107db90612307565b60405180910390fd5b6006546008546107f49190612539565b341115610836576040517f08c379a000000000000000000000000000000000000000000000000000000000815260040161082d90612247565b60405180910390fd5b6000600654346108469190612508565b9050610852338261173e565b600760009054906101000a900473ffffffffffffffffffffffffffffffffffffffff1673ffffffffffffffffffffffffffffffffffffffff166108fc349081150290604051600060405180830381858888f193505050501580156108ba573d6000803e3d6000fd5b5080600860008282546108cd91906124b2565b9250508190555050565b600061090583600760009054906101000a900473ffffffffffffffffffffffffffffffffffffffff16610fd3565b11610945576040517f08c379a000000000000000000000000000000000000000000000000000000000815260040161093c90612387565b60405180910390fd5b600b60008373ffffffffffffffffffffffffffffffffffffffff1673ffffffffffffffffffffffffffffffffffffffff1681526020019081526020016000205434101561099157600080fd5b600a60003373ffffffffffffffffffffffffffffffffffffffff1673ffffffffffffffffffffffffffffffffffffffff16815260200190815260200160002060008373ffffffffffffffffffffffffffffffffffffffff1673ffffffffffffffffffffffffffffffffffffffff168152602001908152602001600020505050565b60008060008373ffffffffffffffffffffffffffffffffffffffff1673ffffffffffffffffffffffffffffffffffffffff168152602001908152602001600020549050919050565b60085481565b600760009054906101000a900473ffffffffffffffffffffffffffffffffffffffff1681565b606060048054610a959061264f565b80601f0160208091040260200160405190810160405280929190818152602001828054610ac19061264f565b8015610b0e5780601f10610ae357610100808354040283529160200191610b0e565b820191906000526020600020905b815481529060010190602001808311610af157829003601f168201915b5050505050905090565b600760009054906101000a900473ffffffffffffffffffffffffffffffffffffffff1673ffffffffffffffffffffffffffffffffffffffff163373ffffffffffffffffffffffffffffffffffffffff1614610b7257600080fd5b6000600a60008373ffffffffffffffffffffffffffffffffffffffff1673ffffffffffffffffffffffffffffffffffffffff16815260200190815260200160002060008473ffffffffffffffffffffffffffffffffffffffff1673ffffffffffffffffffffffffffffffffffffffff1681526020019081526020016000205411610c31576040517f08c379a0000000000000000000000000000000000000000000000000000000008152600401610c2890612327565b60405180910390fd5b610cb781600a60008473ffffffffffffffffffffffffffffffffffffffff1673ffffffffffffffffffffffffffffffffffffffff16815260200190815260200160002060008573ffffffffffffffffffffffffffffffffffffffff1673ffffffffffffffffffffffffffffffffffffffff16815260200190815260200160002054610f4e565b508173ffffffffffffffffffffffffffffffffffffffff166108fc600b60008573ffffffffffffffffffffffffffffffffffffffff1673ffffffffffffffffffffffffffffffffffffffff16815260200190815260200160002054600a60008573ffffffffffffffffffffffffffffffffffffffff1673ffffffffffffffffffffffffffffffffffffffff16815260200190815260200160002060008673ffffffffffffffffffffffffffffffffffffffff1673ffffffffffffffffffffffffffffffffffffffff16815260200190815260200160002054610d999190612539565b9081150290604051600060405180830381858888f19350505050158015610dc4573d6000803e3d6000fd5b50600a60008273ffffffffffffffffffffffffffffffffffffffff1673ffffffffffffffffffffffffffffffffffffffff16815260200190815260200160002060008373ffffffffffffffffffffffffffffffffffffffff1673ffffffffffffffffffffffffffffffffffffffff168152602001908152602001600020600090555050565b60606009805480602002602001604051908101604052809291908181526020018280548015610ecd57602002820191906000526020600020905b8160009054906101000a900473ffffffffffffffffffffffffffffffffffffffff1673ffffffffffffffffffffffffffffffffffffffff1681526020019060010190808311610e83575b5050505050905090565b600080610ee2611099565b90506000610ef08286610fd3565b905083811015610f35576040517f08c379a0000000000000000000000000000000000000000000000000000000008152600401610f2c906123e7565b60405180910390fd5b610f42828686840361126f565b60019250505092915050565b600080610f59611099565b9050610f668185856114c6565b600191505092915050565b60055481565b6000610f8384846106b7565b5081600b60003373ffffffffffffffffffffffffffffffffffffffff1673ffffffffffffffffffffffffffffffffffffffff16815260200190815260200160002081905550600190509392505050565b6000600160008473ffffffffffffffffffffffffffffffffffffffff1673ffffffffffffffffffffffffffffffffffffffff16815260200190815260200160002060008373ffffffffffffffffffffffffffffffffffffffff1673ffffffffffffffffffffffffffffffffffffffff16815260200190815260200160002054905092915050565b6009818154811061106a57600080fd5b906000526020600020016000915054906101000a900473ffffffffffffffffffffffffffffffffffffffff1681565b600033905090565b600073ffffffffffffffffffffffffffffffffffffffff168273ffffffffffffffffffffffffffffffffffffffff161415611111576040517f08c379a000000000000000000000000000000000000000000000000000000000815260040161110890612347565b60405180910390fd5b61111d82600083611895565b60008060008473ffffffffffffffffffffffffffffffffffffffff1673ffffffffffffffffffffffffffffffffffffffff168152602001908152602001600020549050818110156111a3576040517f08c379a000000000000000000000000000000000000000000000000000000000815260040161119a90612267565b60405180910390fd5b8181036000808573ffffffffffffffffffffffffffffffffffffffff1673ffffffffffffffffffffffffffffffffffffffff1681526020019081526020016000208190555081600260008282540392505081905550600073ffffffffffffffffffffffffffffffffffffffff168373ffffffffffffffffffffffffffffffffffffffff167fddf252ad1be2c89b69c2b068fc378daa952ba7f163c4a11628f55a4df523b3ef846040516112569190612427565b60405180910390a361126a8360008461189a565b505050565b600073ffffffffffffffffffffffffffffffffffffffff168373ffffffffffffffffffffffffffffffffffffffff1614156112df576040517f08c379a00000000000000000000000000000000000000000000000000000000081526004016112d6906123c7565b60405180910390fd5b600073ffffffffffffffffffffffffffffffffffffffff168273ffffffffffffffffffffffffffffffffffffffff16141561134f576040517f08c379a000000000000000000000000000000000000000000000000000000000815260040161134690612287565b60405180910390fd5b80600160008573ffffffffffffffffffffffffffffffffffffffff1673ffffffffffffffffffffffffffffffffffffffff16815260200190815260200160002060008473ffffffffffffffffffffffffffffffffffffffff1673ffffffffffffffffffffffffffffffffffffffff168152602001908152602001600020819055508173ffffffffffffffffffffffffffffffffffffffff168373ffffffffffffffffffffffffffffffffffffffff167f8c5be1e5ebec7d5bd14f71427d1e84f3dd0314c0f7b2291e5b200ac8c7c3b9258360405161142d9190612427565b60405180910390a3505050565b60006114468484610fd3565b90507fffffffffffffffffffffffffffffffffffffffffffffffffffffffffffffffff81146114c057818110156114b2576040517f08c379a00000000000000000000000000000000000000000000000000000000081526004016114a9906122a7565b60405180910390fd5b6114bf848484840361126f565b5b50505050565b600073ffffffffffffffffffffffffffffffffffffffff168373ffffffffffffffffffffffffffffffffffffffff161415611536576040517f08c379a000000000000000000000000000000000000000000000000000000000815260040161152d90612367565b60405180910390fd5b600073ffffffffffffffffffffffffffffffffffffffff168273ffffffffffffffffffffffffffffffffffffffff1614156115a6576040517f08c379a000000000000000000000000000000000000000000000000000000000815260040161159d90612227565b60405180910390fd5b6115b1838383611895565b60008060008573ffffffffffffffffffffffffffffffffffffffff1673ffffffffffffffffffffffffffffffffffffffff16815260200190815260200160002054905081811015611637576040517f08c379a000000000000000000000000000000000000000000000000000000000815260040161162e906122c7565b60405180910390fd5b8181036000808673ffffffffffffffffffffffffffffffffffffffff1673ffffffffffffffffffffffffffffffffffffffff16815260200190815260200160002081905550816000808573ffffffffffffffffffffffffffffffffffffffff1673ffffffffffffffffffffffffffffffffffffffff168152602001908152602001600020600082825401925050819055508273ffffffffffffffffffffffffffffffffffffffff168473ffffffffffffffffffffffffffffffffffffffff167fddf252ad1be2c89b69c2b068fc378daa952ba7f163c4a11628f55a4df523b3ef846040516117259190612427565b60405180910390a361173884848461189a565b50505050565b600073ffffffffffffffffffffffffffffffffffffffff168273ffffffffffffffffffffffffffffffffffffffff1614156117ae576040517f08c379a00000000000000000000000000000000000000000000000000000000081526004016117a590612407565b60405180910390fd5b6117ba60008383611895565b80600260008282546117cc91906124b2565b92505081905550806000808473ffffffffffffffffffffffffffffffffffffffff1673ffffffffffffffffffffffffffffffffffffffff168152602001908152602001600020600082825401925050819055508173ffffffffffffffffffffffffffffffffffffffff16600073ffffffffffffffffffffffffffffffffffffffff167fddf252ad1be2c89b69c2b068fc378daa952ba7f163c4a11628f55a4df523b3ef8360405161187d9190612427565b60405180910390a36118916000838361189a565b5050565b505050565b600073ffffffffffffffffffffffffffffffffffffffff168373ffffffffffffffffffffffffffffffffffffffff161415611937576009829080600181540180825580915050600190039060005260206000200160009091909190916101000a81548173ffffffffffffffffffffffffffffffffffffffff021916908373ffffffffffffffffffffffffffffffffffffffff160217905550611c45565b600073ffffffffffffffffffffffffffffffffffffffff168273ffffffffffffffffffffffffffffffffffffffff1614156119be576040518060200160405280600073ffffffffffffffffffffffffffffffffffffffff1673ffffffffffffffffffffffffffffffffffffffff1681525060099060016119b8929190611c4a565b50611c44565b60005b600980549050811015611b72578373ffffffffffffffffffffffffffffffffffffffff1660098281548110611a1f577f4e487b7100000000000000000000000000000000000000000000000000000000600052603260045260246000fd5b9060005260206000200160009054906101000a900473ffffffffffffffffffffffffffffffffffffffff1673ffffffffffffffffffffffffffffffffffffffff161415611b5f5760096001600980549050611a7a9190612593565b81548110611ab1577f4e487b7100000000000000000000000000000000000000000000000000000000600052603260045260246000fd5b9060005260206000200160009054906101000a900473ffffffffffffffffffffffffffffffffffffffff1660098281548110611b16577f4e487b7100000000000000000000000000000000000000000000000000000000600052603260045260246000fd5b9060005260206000200160006101000a81548173ffffffffffffffffffffffffffffffffffffffff021916908373ffffffffffffffffffffffffffffffffffffffff1602179055505b8080611b6a90612681565b9150506119c1565b506009805480611bab577f4e487b7100000000000000000000000000000000000000000000000000000000600052603160045260246000fd5b6001900381819060005260206000200160006101000a81549073ffffffffffffffffffffffffffffffffffffffff021916905590556009829080600181540180825580915050600190039060005260206000200160009091909190916101000a81548173ffffffffffffffffffffffffffffffffffffffff021916908373ffffffffffffffffffffffffffffffffffffffff1602179055505b5b505050565b828054828255906000526020600020908101928215611cc3579160200282015b82811115611cc25782518260006101000a81548173ffffffffffffffffffffffffffffffffffffffff021916908373ffffffffffffffffffffffffffffffffffffffff16021790555091602001919060010190611c6a565b5b509050611cd09190611cd4565b5090565b5b80821115611ced576000816000905550600101611cd5565b5090565b600081359050611d0081612b74565b92915050565b600081359050611d1581612b8b565b92915050565b600060208284031215611d2d57600080fd5b6000611d3b84828501611cf1565b91505092915050565b60008060408385031215611d5757600080fd5b6000611d6585828601611cf1565b9250506020611d7685828601611cf1565b9150509250929050565b600080600060608486031215611d9557600080fd5b6000611da386828701611cf1565b9350506020611db486828701611cf1565b9250506040611dc586828701611d06565b9150509250925092565b60008060408385031215611de257600080fd5b6000611df085828601611cf1565b9250506020611e0185828601611d06565b9150509250929050565b600080600060608486031215611e2057600080fd5b6000611e2e86828701611cf1565b9350506020611e3f86828701611d06565b9250506040611e5086828701611d06565b9150509250925092565b600060208284031215611e6c57600080fd5b6000611e7a84828501611d06565b91505092915050565b6000611e8f8383611e9b565b60208301905092915050565b611ea4816125c7565b82525050565b611eb3816125c7565b82525050565b6000611ec48261246d565b611ece8185612490565b9350611ed98361245d565b8060005b83811015611f0a578151611ef18882611e83565b9750611efc83612483565b925050600181019050611edd565b5085935050505092915050565b611f20816125d9565b82525050565b6000611f3182612478565b611f3b81856124a1565b9350611f4b81856020860161261c565b611f5481612757565b840191505092915050565b6000611f6c6023836124a1565b9150611f7782612768565b604082019050919050565b6000611f8f601a836124a1565b9150611f9a826127b7565b602082019050919050565b6000611fb26022836124a1565b9150611fbd826127e0565b604082019050919050565b6000611fd56022836124a1565b9150611fe08261282f565b604082019050919050565b6000611ff8601d836124a1565b91506120038261287e565b602082019050919050565b600061201b6026836124a1565b9150612026826128a7565b604082019050919050565b600061203e6022836124a1565b9150612049826128f6565b604082019050919050565b60006120616012836124a1565b915061206c82612945565b602082019050919050565b6000612084601c836124a1565b915061208f8261296e565b602082019050919050565b60006120a76021836124a1565b91506120b282612997565b604082019050919050565b60006120ca6025836124a1565b91506120d5826129e6565b604082019050919050565b60006120ed600b836124a1565b91506120f882612a35565b602082019050919050565b6000612110603f836124a1565b915061211b82612a5e565b604082019050919050565b60006121336024836124a1565b915061213e82612aad565b604082019050919050565b60006121566025836124a1565b915061216182612afc565b604082019050919050565b6000612179601f836124a1565b915061218482612b4b565b602082019050919050565b61219881612605565b82525050565b6121a78161260f565b82525050565b60006020820190506121c26000830184611eaa565b92915050565b600060208201905081810360008301526121e28184611eb9565b905092915050565b60006020820190506121ff6000830184611f17565b92915050565b6000602082019050818103600083015261221f8184611f26565b905092915050565b6000602082019050818103600083015261224081611f5f565b9050919050565b6000602082019050818103600083015261226081611f82565b9050919050565b6000602082019050818103600083015261228081611fa5565b9050919050565b600060208201905081810360008301526122a081611fc8565b9050919050565b600060208201905081810360008301526122c081611feb565b9050919050565b600060208201905081810360008301526122e08161200e565b9050919050565b6000602082019050818103600083015261230081612031565b9050919050565b6000602082019050818103600083015261232081612054565b9050919050565b6000602082019050818103600083015261234081612077565b9050919050565b600060208201905081810360008301526123608161209a565b9050919050565b60006020820190508181036000830152612380816120bd565b9050919050565b600060208201905081810360008301526123a0816120e0565b9050919050565b600060208201905081810360008301526123c081612103565b9050919050565b600060208201905081810360008301526123e081612126565b9050919050565b6000602082019050818103600083015261240081612149565b9050919050565b600060208201905081810360008301526124208161216c565b9050919050565b600060208201905061243c600083018461218f565b92915050565b6000602082019050612457600083018461219e565b92915050565b6000819050602082019050919050565b600081519050919050565b600081519050919050565b6000602082019050919050565b600082825260208201905092915050565b600082825260208201905092915050565b60006124bd82612605565b91506124c883612605565b9250827fffffffffffffffffffffffffffffffffffffffffffffffffffffffffffffffff038211156124fd576124fc6126ca565b5b828201905092915050565b600061251382612605565b915061251e83612605565b92508261252e5761252d6126f9565b5b828204905092915050565b600061254482612605565b915061254f83612605565b9250817fffffffffffffffffffffffffffffffffffffffffffffffffffffffffffffffff0483118215151615612588576125876126ca565b5b828202905092915050565b600061259e82612605565b91506125a983612605565b9250828210156125bc576125bb6126ca565b5b828203905092915050565b60006125d2826125e5565b9050919050565b60008115159050919050565b600073ffffffffffffffffffffffffffffffffffffffff82169050919050565b6000819050919050565b600060ff82169050919050565b60005b8381101561263a57808201518184015260208101905061261f565b83811115612649576000848401525b50505050565b6000600282049050600182168061266757607f821691505b6020821081141561267b5761267a612728565b5b50919050565b600061268c82612605565b91507fffffffffffffffffffffffffffffffffffffffffffffffffffffffffffffffff8214156126bf576126be6126ca565b5b600182019050919050565b7f4e487b7100000000000000000000000000000000000000000000000000000000600052601160045260246000fd5b7f4e487b7100000000000000000000000000000000000000000000000000000000600052601260045260246000fd5b7f4e487b7100000000000000000000000000000000000000000000000000000000600052602260045260246000fd5b6000601f19601f8301169050919050565b7f45524332303a207472616e7366657220746f20746865207a65726f206164647260008201527f6573730000000000000000000000000000000000000000000000000000000000602082015250565b7f457863656564696e6720616d6f756e74206f6620746f6b656e73000000000000600082015250565b7f45524332303a206275726e20616d6f756e7420657863656564732062616c616e60008201527f6365000000000000000000000000000000000000000000000000000000000000602082015250565b7f45524332303a20617070726f766520746f20746865207a65726f20616464726560008201527f7373000000000000000000000000000000000000000000000000000000000000602082015250565b7f45524332303a20696e73756666696369656e7420616c6c6f77616e6365000000600082015250565b7f45524332303a207472616e7366657220616d6f756e742065786365656473206260008201527f616c616e63650000000000000000000000000000000000000000000000000000602082015250565b7f476f7665726e6d656e7420646f6573206e6f74206f776e20616c6c20746f6b6560008201527f6e73000000000000000000000000000000000000000000000000000000000000602082015250565b7f496e73756666696369656e742066756e64730000000000000000000000000000600082015250565b7f596f7520646f6e2774206f776e2074686520746f6b656e732079657400000000600082015250565b7f45524332303a206275726e2066726f6d20746865207a65726f2061646472657360008201527f7300000000000000000000000000000000000000000000000000000000000000602082015250565b7f45524332303a207472616e736665722066726f6d20746865207a65726f20616460008201527f6472657373000000000000000000000000000000000000000000000000000000602082015250565b7f4e6f74206f6e2073616c65000000000000000000000000000000000000000000600082015250565b7f416c6c20636c61696d732068617665206265656e20636c61696d65642e20596f60008201527f752063616e206f6e6c79207472616e736665722066726f6d206e6f77206f6e00602082015250565b7f45524332303a20617070726f76652066726f6d20746865207a65726f2061646460008201527f7265737300000000000000000000000000000000000000000000000000000000602082015250565b7f45524332303a2064656372656173656420616c6c6f77616e63652062656c6f7760008201527f207a65726f000000000000000000000000000000000000000000000000000000602082015250565b7f45524332303a206d696e7420746f20746865207a65726f206164647265737300600082015250565b612b7d816125c7565b8114612b8857600080fd5b50565b612b9481612605565b8114612b9f57600080fd5b5056fea2646970667358221220a0455b90942076742a9f7d118ab2fb59eb9ef3e2f18656f8ca2367727954d45864736f6c63430008040033a2646970667358221220a30b873f12d093fdde9b140d5a70bc89f2f13f43449d5ab40681e0f02469acd764736f6c63430008040033",
  "linkReferences": {},
  "deployedLinkReferences": {}
}